:020000040800F2
:100000000004022001020008E10E0008E50E0008CD
:10001000390F0008E50E00080D0F00080302000864
:1000200003020008030200080302000895300008DC
:10003000030200080302000803020008030200088C
:10004000030200080302000803020008030200087C
:100050000302000803020008ED320008193300080B
:1000600045330008713300089D330008030200087F
:10007000030200080302000803020008030200084C
:10008000030200080302000803020008030200083C
:10009000030200080302000803020008C933000835
:1000A000030200080302000803020008030200081C
:1000B00011310008030200080302000803020008CF
:1000C00003020008030200080302000803020008FC
:1000D00003020008030200080302000803020008EC
:1000E000313400080302000803020008030200087C
:1000F00003020008030200080302000803020008CC
:1001000003020008030200080302000803020008BB
:1001100003020008030200080302000803020008AB
:10012000030200080302000803020008030200089B
:10013000030200080302000803020008030200088B
:100140000302000803020008030200089D270008BC
:10015000030200080302000803020008030200086B
:10016000030200080302000803020008030200085B
:10017000030200080302000803020008030200084B
:10018000030200080302000803020008030200083B
:10019000030200080302000803020008030200082B
:1001A000030200080302000803020008030200081B
:1001B000030200080302000803020008030200080B
:1001C00003020008030200080302000803020008FB
:1001D00003020008030200080302000803020008EB
:1001E00003020008030200080302000803020008DB
:1001F00003020008030200080302000803020008CB
:1002000002E000F000F8FEE772B6394880F3088893
:10021000384880F3098838484EF60851CEF200017C
:10022000086040F20000CCF200004EF63471CEF2CD
:1002300000010860BFF34F8FBFF36F8F40F20000E3
:10024000C0F2F0004EF68851CEF200010860BFF314
:100250004F8FBFF36F8F4FF00000E1EE100A4EF6A4
:100260003C71CEF200010860062080F31488BFF3D1
:100270006F8F01F01BFF02F095FE4FF055301F49C4
:100280001B4A91423CBF41F8040BFAE71C49194A4A
:1002900091423CBF41F8040BFAE71A491A4A1B4B3A
:1002A0009A423EBF51F8040B42F8040BF8E70020D5
:1002B0001749184A91423CBF41F8040BFAE701F094
:1002C00039FF02F0D9FE144C144DAC4203DA54F855
:1002D000041B8847F9E700F03FF8114C114DAC4280
:1002E00003DA54F8041B8847F9E701F021BF000046
:1002F0000004022000240220000000080000022068
:10030000000402205038000800240220502402205B
:100310005024022058340220000200080002000885
:1003200000020008000200082DE9F04F2DED108AB0
:10033000C1F80CD0D0F80CD0BDEC108ABDE8F08F1D
:10034000002383F311882846A047002001F038FBE2
:1003500001F0FCFA00DFFEE770B5214C6FF070038E
:10036000002523706FF07F061E236570A570E57071
:1003700025716571A571E57125726672A372E572CA
:1003800000F012FD20B10E2325726672A372E57291
:1003900001F04EFE044601F083FE0546D8B9114B2C
:1003A0009C421AD001339C4218BF054641F2883462
:1003B00004BF01250024002001F044FE0DB100F02F
:1003C000B5F800F061FD00F041FC204600F04CF96A
:1003D00000F0ACF8F9E70024EDE70446EBE700BFD6
:1003E00050240220010007B008B500F0D1FBA0F1B5
:1003F00020035842584108BD07B5054B02211B8810
:10040000ADF8043001A800F011FC03B05DF804FB66
:1004100014350008064991F8243033B1002308222E
:10042000086A81F8243000F035BC0120704700BF15
:10043000702402202DE9F84F224C164694F824200F
:100440000746884682BBDFF87C90002E38D094F8AF
:1004500024A0BAF1000F05D12022FF2148462762CF
:1004600000F000FDCAF10805B54228BF35465FFA25
:1004700085FBAD0041462A4604EB8A0000F0CAFC29
:1004800094F82430A6EB0B069B445FFA8BFBBBF180
:10049000080F2F44A844F6B284F824B0D5D1FFF752
:1004A000B9FF0028D1D108E0236A03EB820383421D
:1004B000C9D0FFF7AFFF0028C5D10020BDE8F88FF5
:1004C0000120FBE77024022010B5202383F311885C
:1004D0001248C3680BB101F0F9FA0023104A0F4823
:1004E0004FF47A7101F0B6FA002383F311880D4CB2
:1004F000236813B12368013B2360636813B1636809
:10050000013B6360084B1B7833B9636823B9022051
:1005100000F076FC3223636010BD00BF5C24022033
:10052000C9040008A0290220982402202DE9F041E6
:10053000444B454A1968013100F0818004339342ED
:10054000F8D1424C424B22689A4278D9414B9B6881
:1005500003F1006303F5C0339A4270D2002000F02B
:1005600091FB3D4B0220187000F040FC3B4B1A6C95
:1005700000221A64196E1A66196E596C5A64596E03
:100580005A66596E596941F080015961596921F0E3
:10059000800159615969196941F00051196119695E
:1005A00021F0005119611B6972B62D49254B0B6072
:1005B0001D682468BFF34F8FBFF36F8F294BC3F8BB
:1005C0008420BFF34F8F5A6922F480325A61BFF3FF
:1005D0004F8FD3F88020C2F3C906C2F34E325201C6
:1005E000B70743F6E07C02EA0C0838463146013989
:1005F00048EA000EB1F1FF3FC3F874E200F1404059
:10060000F5D1203A12F1200FEDD1BFF34F8FBFF398
:100610006F8FBFF34F8FBFF36F8F5A6922F4003291
:100620005A610022C3F85022BFF34F8FBFF36F8F80
:10063000202383F31188AD4685F308882047BDE861
:10064000F08100BF008001082080010804800108BB
:10065000FF7F010850240220982402200038024025
:1006600008ED00E000ED00E02DE9F04FAD4C97B053
:1006700020228146FF210EA8A66800F0F3FBAA4ABB
:100680001378A246A3B9A9480121C36011702023A1
:1006900083F31188C3680BB101F018FA0023A44A50
:1006A000A2484FF47A7101F0D5F9002383F3118841
:1006B000B9F1000F02D09F4BC3F800909E4B9D4AAA
:1006C00000241C705460254627469846012000F0FF
:1006D0008DFBB9F1000F04D0964B1B68002B00F086
:1006E0002C82002000F054FA0290029B002BF0DBD9
:1006F000012000F071FB029B213B122BE6D801A2E6
:1007000052F823F0510700086F070008DD070008C2
:10071000CD060008CD060008CD0600086B080008CD
:10072000A90A000851090008090A00083B0A000844
:10073000690A0008CD060008810A0008CD060008F5
:10074000F90A000857080008CD060008410B000808
:100750000220FFF749FE002840F01082774B1B88EB
:10076000ADF82430022109A800F060FAAEE74FF49A
:100770007A7000F00DFA031E0193EFDB0220FFF701
:1007800033FE83460028E9D0019B581E042800F25E
:10079000F781DFE800F0030D1013160016A80523FB
:1007A00040F8343D042100F041FA5C46002752E055
:1007B00004215C48F7E704216148F4E7042161481B
:1007C000F1E71C24204600F05FFA0434099004216C
:1007D00009A800F02BFA2C2CF4D1E6E7002DBDD0AF
:1007E000002CBBD00220FFF7FFFD0546002800F0DB
:1007F000C981012000F046FA022088F8000000F0CC
:10080000F5FA0024E3B21846019300F04BFA834650
:1008100048B1019B184600F055FA01340028F1D187
:100820002C46494B9BE70123022088F8003000F05A
:10083000D3FA5E46DAF80830B34206D9304600F003
:1008400023FA0130ECD10436F4E73A4B002688F85D
:1008500000605E602C4600F00DFB1DB1002C18BF3F
:100860004FF00009FFF7C8FD30E7002D3FF476AFE9
:10087000002C3FF473AF022088F8000000F0B6FAB5
:10088000322000F085F9B0F1000BC0F27B811BF043
:10089000030540F07781DAF808200BEB060393425A
:1008A00000F27081BBF5807F00F26C81274B0193D1
:1008B000AB450DDD4FF47A7000F06AF90290029AB0
:1008C000002AC0F25F81019B029AEA540135EEE7EB
:1008D000C820FFF789FD0546002800F053811F2E30
:1008E00011D8C6F120045C4528BF5C460EAB26F04B
:1008F000030022461549184400F08CFA2246FF21D5
:10090000124800F0AFFA4FEAAB0B5FFA8BF20F49D7
:100910003046FFF78FFD0446002881D006EB8B069A
:10092000054698E7502402209C2502205C240220E2
:10093000C9040008A02902209824022016350008C6
:100940005424022058240220183500089C24022038
:100950000220FFF749FD00283FF400AFFFF75AFDE2
:1009600000283FF4FBAE4FF0000B5946DAF8083090
:100970005B4542D9BBF11F0F38D80E9B013335D0F0
:100980002BF0030316AA134453F8203C09937E4826
:100990004368CBB91A464FF0080C02F0010E52081A
:1009A000BEF1000F07D082F06D4282F4380282F46B
:1009B000034282F02002BCF1010CEED140F823206A
:1009C0000133B3F5807FE5D16F4800220DF1240C8F
:1009D00012F80C304B40DBB2013250F82330042ABD
:1009E00083EA1121F4D10BF1040BBFE758460191C2
:1009F00000F04AF901990990C9E716A840F84C1D82
:100A0000042100F013F926E716A8002340F8343D2E
:100A1000642100F0E7F800287FF4A0AE0220FFF781
:100A2000E3FC00283FF49AAE099800F05DF916AB9C
:100A300043F8480D04211846E3E716A8002340F8C0
:100A4000343D642100F0CEF800287FF487AE022008
:100A5000FFF7CAFC00283FF481AE099800F052F974
:100A600016AB43F8440DE5E70220FFF7BDFC002874
:100A70003FF474AE00F04CF916AB43F8400DD9E7E3
:100A80000220FFF7B1FC00283FF468AE09A914204A
:100A900000F044F9834616A8042140F83CBD00F05C
:100AA000C5F8594609A8ACE7322000F071F8B0F15A
:100AB000000BFFF653AE1BF0030F7FF44FAEDAF8D6
:100AC00008200BEB070393423FF648AE0220FFF7E6
:100AD0008BFC00283FF442AE2BF0030BBB445F4578
:100AE0003FF4B9AE384600F0CFF80421089008A8CA
:100AF00000F09CF80437F2E74FF47A70FFF774FCCB
:100B000000283FF42BAEFFF785FC00283FF489AEA8
:100B10000E9B01330CD008220EA90020FFF78AFC9F
:100B200000283FF47EAE2022FF210EA800F09AF9A3
:100B3000FFF762FC154800F049FF17B0BDE8F08FE1
:100B400016A8002340F8343D642100F04BF883469A
:100B500000287FF403AE0220FFF746FC00283FF494
:100B6000FDADFFF749FC41F2883000F02FFF0998F6
:100B700000F0B4F9D94600F07DF9A7E505466AE62C
:100B80000027EBE52546E9E5A0250220A086010027
:100B900037B5114B1A780132D2B20024012A01462E
:100BA0008DF8074011D80D4803681D6A4FF47A7319
:100BB0004B4301220DF10701A847012805D1084B3D
:100BC0009DF807001C7003B030BD4FF4FA7000F0C0
:100BD000FDFE4FF0FF30F6E700240220702A0220CD
:100BE000AC29022038B50E4B1A780132D2B2012A54
:100BF00005460ED80B4803681C6A4FF47A734B43C2
:100C000004222946A047042803D1074B002018706E
:100C100038BD4FF4FA7000F0D9FE4FF0FF30F7E71F
:100C200000240220702A0220AC29022030B4054C96
:100C30002368DD69044B0A46AC460146204630BCB9
:100C4000604700BF702A0220A0860100F8B501F0BD
:100C5000F3F8094C094E0A4F2070002530682378BC
:100C6000834207D901F0E2F8336805440133BD42FD
:100C70003360F3D9F8BD00BFAD290220A8290220B6
:100C8000FF7F010001F086B900F1006000F5C0307F
:100C90000068704700F10060920000F5C03001F07C
:100CA00011B90000054B1A68054B1B789B1A83424B
:100CB00002D9104401F0BAB800207047A8290220D8
:100CC000AD29022038B5074D04462868204401F0BC
:100CD000B5F828B928682044BDE8384001F0C6B806
:100CE00038BD00BFA829022010F0030308D1B0F5D9
:100CF000806F05D800F10050A0F5712000687047A2
:100D000000207047014BC058704700BF20F4F01F0F
:100D1000014B1868704700BF002004E0F0B5204B7D
:100D20001C68204B1F885E6893F90850C4F30B02BF
:100D3000BA424FEA144422D09F89BA4221D01F8B75
:100D4000BA4206D102220C2505FB02335E6893F9F4
:100D50000850B4F5805F16D041F201039C4208BFF1
:100D60005A25441E0C44013E0B46A34215D216F9E7
:100D7000010F5A1C48B102F8010C1346F5E7002296
:100D8000E1E70122DFE74125EBE72C20A2421870C2
:100D900001D29A1C5D70501AF0BD1A46FBE700BFE5
:100DA000002004E004240220094B5B88B3F5805F37
:100DB00009D041F20102934207D10122054B03EB16
:100DC0008203D87870470022F8E70020704700BF00
:100DD000002004E01C350008022802BF024B4FF03F
:100DE00080529A61704700BF000C0240022802BF87
:100DF000024B4FF480529A61704700BF000C0240D2
:100E0000022801BF024A536983F48053536170473B
:100E1000000C024010B50023934203D0CC5CC454B4
:100E20000133F9E710BD000030B5441E14F9010F7D
:100E30000B4640B193F90050854201F1010102D106
:100E400012B1013AF2E71AB193F90020801A30BDCD
:100E50001046FCE702460346981A13F9011B0029C5
:100E6000FAD1704702440346934202D003F8011BB3
:100E7000FAE77047024B1A78024B1A70704700BFAE
:100E8000AC2902200024022038B5104D104C284611
:100E900000F0EEF82146284600F016F924680D48C7
:100EA000E26ED2F8043843F00203C2F8043800F0CE
:100EB0008DFD0949204600F00FFAE26ED2F80438A1
:100EC00023F00203C2F8043838BD00BF702A0220A4
:100ED000CC35000840420F00F43500087047000090
:100EE000FEE7000000B59BB0EFF309816822684679
:100EF000FFF790FFEFF30583034B9A6B9A6A9A6AA8
:100F00009A6A9A6A9B6AFEE700ED00E000B59BB022
:100F1000EFF3098168226846FFF77CFFEFF3058352
:100F2000044B9A6B9A6A9A6A9A6A9A6A9A6A9B6A54
:100F3000FEE700BF00ED00E000B59BB0EFF30981D4
:100F400068226846FFF766FFEFF30583034B5A6B91
:100F50009A6A9A6A9A6A9A6A9B6AFEE700ED00E0CA
:100F6000002304491A465A50C8180833802B42609F
:100F7000F9D17047B029022002684368114301602B
:100F800003B118477047000013B5446BD4F894348C
:100F90001A681178042915D1217C022912D11979F6
:100FA000128901238B4013420CD101A904F14C009A
:100FB00001F06EFED4F89444019B2179024620682A
:100FC00000F0DAF902B010BD143001F0F1BD0000FC
:100FD0004FF0FF33143001F0EBBD00004C3001F056
:100FE000C3BE00004FF0FF334C3001F0BDBE000027
:100FF000143001F0BFBD00004FF0FF31143001F09C
:10100000B9BD00004C3001F08FBE00004FF0FF3240
:101010004C3001F089BE0000D0F8942438B5136834
:1010200019780429054601D0012038BD017C022928
:10103000FAD112795C89012090400440F4D105F185
:10104000140001F051FD02460028EDD0D5F894546B
:101050004FF480732868697900F07CF92046E4E752
:10106000406BFFF7D9BF00000020704770470000B9
:101070007FB5124B036000234360C0E902330125B2
:1010800002260F4B057404460290019300F184027E
:10109000294600964FF48073143001F001FD094B8E
:1010A0000294CDE9006304F523724FF4807329465E
:1010B00004F14C0001F0C8FD04B070BD50350008CB
:1010C00061100008890F00080B68202282F3118844
:1010D0000A7903EB820210624A790D3243F822004A
:1010E0008A7912B103EB8203186202230374C0F8F9
:1010F0009414002383F311887047000038B5037FF0
:10110000044613B190F85430ABB9201D01250221DB
:10111000FFF732FF04F1140025776FF0010100F0B2
:101120007DFC84F8545004F14C006FF00101BDE8DF
:10113000384000F073BC38BD10B5012104460430BE
:10114000FFF71AFF0023237784F8543010BD000006
:1011500038B504460025143001F0BAFC04F14C0007
:10116000257701F089FD201D84F854500121FFF7F7
:1011700003FF2046BDE83840FFF74EBF90F85C30D3
:1011800003F06003202B07D190F85D30202B03D3B0
:10119000212B03D9222B09D000207047054B036572
:1011A0000723436500238365012070470023C0E9BE
:1011B0001433F8E728240220D0F8943437B51A689D
:1011C0001178042904461AD1017C022917D1197912
:1011D000128901238B40134211D100F14C0528469E
:1011E00001F00AFE58B101A9284601F051FDD4F8DA
:1011F0009444019B21790246206800F0BDF803B0B9
:1012000030BD000000EB8103F7B51C6A05460E46B1
:10121000F4B1202383F3118805EB8607201D0821F4
:10122000FFF7AAFEFB685B691B684C3413B12046CC
:1012300001F03CFD01A9204601F02AFD024648B11B
:10124000019B3146284600F097F8002383F311886C
:1012500003B0F0BDFB685A691268002AF5D01B8AFA
:10126000013B1340F1D105F15C02EAE70D3138B5DD
:1012700050F82140DCB1202383F31188D4F8942462
:101280001368527903EB8203DB689B695D6845B1A3
:1012900004216018FFF770FE294604F1140001F0E4
:1012A0002DFC2046FFF7B8FE002383F3118838BDDC
:1012B0007047000000F0C2BF0123037000234362A7
:1012C00083638362C363C3620364036343644363EE
:1012D0008364C0E90133704738B50446202383F3A3
:1012E000118800254160C0E90355C0E90555C0E9F2
:1012F000075500F0B3FF0223237085F3118838BD32
:1013000070B500EB810305465069DA600E4614465D
:1013100018B110220021FFF7A5FDA06918B1102215
:101320000021FFF79FFD31462846BDE8704001F0DF
:101330005FB80000028902F001020281428902F0D6
:10134000010242810022C0E90422C0E906220262B1
:1013500001F0E4B8F0B400EB81044789E4680125AA
:10136000A4698D403D43458123600023A2606360F2
:10137000F0BC01F0FFB80000F0B400EB8104078975
:10138000E468012564698D403D43058123600023A5
:10139000A2606360F0BC01F079B9000070B502236F
:1013A0000025044603704566C0E90255C0E90455AE
:1013B000C0E90655056280F84C5000F0B5FF63683F
:1013C0001B6823B129462046BDE87040184770BD10
:1013D000436802781B6880F86820052202700BB110
:1013E0000421184770470000436890F868201B6884
:1013F00002700BB1052118477047000090F84C307F
:1014000070B5044613B1002380F84C3004F15C023F
:10141000204601F0A5F863689B6863BB94F85C30D4
:1014200013F0600515D194F85D2003F07F0343EAC3
:10143000022340F20232934200F008815BD8022B73
:1014400000F0DB803FD8002B00F08680012B00F0FD
:10145000CE800021204601F0EFFA0021204601F065
:10146000E1FA63681B6813B10621204698470623FA
:1014700084F84C3070BD204698470028CED094F8B0
:10148000632094F8623043EA0223626D9A4288BF77
:10149000636594F95C30656D002B4FF0200380F29A
:1014A000F780002D00F0E680092284F84C2083F3B9
:1014B00011880021D4E914232046FFF75DFF0023A3
:1014C00083F31188D6E7B3F5817F00F0AB80B3F5E5
:1014D000407F48D0B3F5807FBBD194F85E30012BBC
:1014E000B7D1B4F8643023F00203C4E91455A4F86A
:1014F0006430A565C3E740F2016293421DD8B3F59D
:10150000C06F3AD2B3F5A06FA3D1B4F85C30B3F595
:10151000A06F0ED194F85E3084F86630204600F05B
:101520005BFF63681B6813B10121204698470323C2
:1015300023700023C4E9143313E0B3F5106F32D0E5
:1015400040F60242934252D0B3F5006F81D104F1CC
:1015500067032365012324E004F16402226502226B
:101560006265A3658BE794F85E30012B7FF471AF61
:10157000B4F8643043F00203B7E794F8612061687F
:1015800094F860304E6894F85F1043EA02232046D6
:1015900094F85E20B04700283FF45BAF43682365B2
:1015A00003686365A5E72378042B10D1202383F318
:1015B00011882046FFF7BEFE85F31188636884F822
:1015C00067501B68032121700BB12046984794F89F
:1015D0005E30002BADD084F867300423237063683D
:1015E0001B68002BA5D0022120469847A1E7354B68
:1015F0002365022363650023B3E794F860301D067A
:1016000003F00F0120460AD500F09CFF012804D00A
:1016100002287FF41EAF2C4BEAE72C4BE8E700F0E2
:1016200083FFF3E794F85E30002B7FF412AF94F859
:10163000603013F00F013FF47CAF1A06204602D54C
:1016400001F00EFA75E701F001FA72E794F85E30E6
:10165000002B7FF4FEAE94F8603013F00F013FF4DE
:1016600068AF1B06204602D501F0E6F961E701F0FC
:10167000D9F95EE7142284F84C2083F311882B46B5
:101680002A4629462046FFF765FE85F31188F1E6D4
:101690005DB1152284F84C2083F311880021D4E930
:1016A00014232046FFF756FE09E70B2284F84C204E
:1016B00083F311882B462A4629462046FFF75CFE15
:1016C000E3E700BF80350008783500087C35000866
:1016D00038B590F84C300446152B39D8DFE803F0C4
:1016E0003E38383838383E38380B293938383838A9
:1016F000383838383E3E90F8631090F86220436DD9
:1017000042EA0122934214D2C268128AB3FBF2F574
:1017100002FB15356DB9202383F311882B462A4629
:101720002946FFF729FE85F311880A2384F84C30F7
:101730000EE0142384F84C30202383F31188002317
:101740001A4619462046FFF705FE002383F3118849
:1017500038BD836D03B198470023E7E7002101F00E
:101760006BF90021204601F05DF963681B6813B135
:101770000621204698470623D8E7000090F84C2021
:10178000152A38B5044617D80123934040F6416224
:1017900013421ED113F480150FD19B020CD50B23DD
:1017A00080F84C30202383F311882B462A462946A3
:1017B000FFF7E2FD85F3118838BDC3689B695B685C
:1017C000002BF9D1836D03B19847002384F84C3086
:1017D000F2E7002101F030F90021204601F022F962
:1017E00063681B6813B10621204698470623EDE77E
:1017F000024B0022C3E900339A607047302A02206E
:10180000002303748268054B1B6899689142FBD2E0
:101810005A6803604260106058607047302A0220A6
:1018200008B5202383F31188037C032B05D0042BF8
:101830000DD02BB983F3118808BD436900221A60CB
:101840004FF0FF334361FFF7DBFF0023F2E7D0E9FE
:1018500000231A6002685360F2E70000002303745B
:101860008268054B1B6899689142FBD85A680360EF
:101870004260106058607047302A0220054B196999
:101880000874186802681A605360186101230374B1
:10189000FEF74ABD302A022030B54B1C87B0054602
:1018A0000A4C10D023690A4A01A800F0D3F8284650
:1018B000FFF7E4FF049B13B101A800F007F92369C7
:1018C000586907B030BDFFF7D9FFF8E7302A02208A
:1018D0002118000838B50C4D41612B6981689A6860
:1018E0009142044603D8BDE83840FFF789BF184647
:1018F000FFF786FF01232C61014623742046BDE8D3
:101900003840FEF711BD00BF302A0220044B1A6890
:101910001B6990689B68984294BF00200120704723
:10192000302A022010B5084C236820691A6822600A
:101930005460012223611A74FFF790FF0146206969
:10194000BDE81040FEF7F0BC302A0220FFF7EABFE6
:1019500082600222028270478368A3F17C0243F80E
:101960000C2C026943F83C2C426943F8382C074A96
:1019700043F81C2CC26843F8102C022203F8082CF0
:10198000002203F8072CA3F1180070474103000858
:1019900010B5202383F31188FFF7DEFF00210446F2
:1019A000FFF798FF002383F31188204610BD000045
:1019B000024B1B6958610F20FFF760BF302A0220DD
:1019C000202383F31188FFF7F3BF000008B5014619
:1019D000202383F311880820FFF75EFF002383F3A1
:1019E000118808BD49B1064B42681B6918605A60EE
:1019F000136043600420FFF74FBF4FF0FF30704784
:101A0000302A02200368984206D01A6802605060AB
:101A100059611846FFF7F4BE7047000038B5044618
:101A20000D462068844200D138BD036823605C60A5
:101A30004561FFF7E5FEF4E7054B03F11402C3E946
:101A400005224FF0FF310022C3E90712704700BFA3
:101A5000302A0220F8B5C0E903231B4A0646104687
:101A6000022950F8145F4FF0804338BF02218542AD
:101A70005B6A17460AD11362C2E905665818C6E9BF
:101A80000055B160BDE8F84001F0D6B9106A1B1AE4
:101A90005C18AB6802D3E41A2D6804E0A34202D9B3
:101AA000204401F0D7F9AB68A342F4D36B687360AC
:101AB00035601E606E60B460AB681C1B4FF0FF3376
:101AC000AC60FB61F8BD00BF302A022010B41B4C93
:101AD000234653F8141F814210D0D0E900210A6038
:101AE000026851609A424FF00001C16003D09368D0
:101AF00081680B4493605DF8044B70470A6862612B
:101B000000209A425360C86003D15DF8044B01F095
:101B10009BB993688868034493604FF08042206AC1
:101B2000526A121A9342E6D9991A012998BF931C56
:101B300018445DF8044B01F08DB900BF302A022033
:101B400000207047FEE70000704700004FF0FF30B4
:101B500070470000022906D0032906D00129064853
:101B600018BF0020704705487047032A9ABF0448F1
:101B700000EBC20000207047503600080436000811
:101B80003024022070B59AB001AD064608462946B9
:101B9000144600F095F82846FFF75CF9C0B2431CE4
:101BA0005B00C6E900342370032363700023023412
:101BB0001946DAB2904204F1020401D81AB070BD9D
:101BC000EA5C04F8022C04F8011C0133F1E7000080
:101BD00008B5202383F311880348FFF7EDFA0023AB
:101BE00083F3118808BD00BF702A022010B5044697
:101BF000052916D8DFE801F016150316161D202357
:101C000083F311880E4A0121FFF77AFB20460D4A23
:101C10000221FFF775FB0C48FFF79AFA002383F3C4
:101C2000118810BD202383F311880748FFF766FA57
:101C3000F4E7202383F311880348FFF77DFAEDE7EB
:101C400084350008A8350008702A022038B50C4DEC
:101C50000C4C0D492A4604F10800FFF793FF05F1EB
:101C6000CA0204F110000949FFF78CFF05F5CA729A
:101C700004F118000649BDE83840FFF783BF00BFF4
:101C8000382F022030240220D4350008DE35000829
:101C9000E935000870B5044608460D46FFF7DAF846
:101CA000C6B22046013403780BB9184670BD3246DF
:101CB0002946FFF7B9F80028F3D10120F6E7000024
:101CC0002DE9F84F05460C46FFF7C4F82949C6B27E
:101CD0002846FFF7DFFF08B10136F6B2264928464D
:101CE000FFF7D8FF08B11036F6B2632E0DD8DFF833
:101CF0008490DFF884A0214FDFF888B0DFF8888077
:101D00002E7846B92670BDE8F88F29462046BDE8F2
:101D1000F84F01F0F7BB252E28D107224946284667
:101D2000FFF782F840B9D8F800302360D8F80430C3
:101D3000636007350834E3E7082251462846FFF779
:101D400073F898B90E4BA21C197809090232C95DC3
:101D500002F8041C13F8011B01F00F015B45C95D7B
:101D600002F8031CF0D118340835C9E72670013594
:101D70000134C5E770360008E935000881360008EF
:101D800020F4F01F2CF4F01F78360008BFF34F8FBB
:101D9000024AD368DB03FCD4704700BF003C02401A
:101DA00008B5074B1B7853B9FFF7F0FF054B1A69CD
:101DB000002ABFBF044A5A6002F188325A6008BD47
:101DC00096310220003C02402301674508B5054BCF
:101DD0001B7833B9FFF7DAFF034A136943F0004376
:101DE000136108BD96310220003C02400B2870B5FB
:101DF00013D80B4A0B4C137863B90B4E4FF00061AC
:101E000044F8231056F8235001330C2B2944F7D102
:101E10000123137054F8200070BD0020FCE700BFC0
:101E2000C83102209831022094360008014B53F843
:101E300020007047943600080C2070470B2810B51E
:101E4000044601D9002010BDFFF7D0FF064B53F820
:101E500024301844C21A0BB90120F4E71268013289
:101E6000F0D1043BF6E700BF943600080B2810B50C
:101E7000044621D8FFF78AFFFFF792FF0F4AF323AA
:101E8000D360C300DBB243F4007343F00203136179
:101E9000136943F480331361FFF778FFFFF7A6FF60
:101EA000074B53F8241000F0DDF8FFF78FFF2046B2
:101EB000BDE81040FFF7C2BF002010BD003C02404B
:101EC00094360008F8B512F0010316463DD1821889
:101ED000B2F1026F58D22D4B1B6813F0010353D09F
:101EE0002B4CFFF75DFFF323E360FFF74FFF40F25A
:101EF0000127032E01D9830710D0254D0F46401A24
:101F00003144CB1B012B00EB07042B6922D823F0B3
:101F100001032B61FFF75AFF0120F8BD236923F469
:101F20004073236123693B43236151F8045B0560DF
:101F3000BFF34F8FFFF72AFF03689D4207D0236945
:101F400023F001032361FFF741FF0020E5E7043E92
:101F50000430CEE723F440732B612B6943F4807384
:101F600043F001032B613B882380BFF34F8FFFF7C2
:101F70000DFF248837F8023BA4B2A342C1D02B69DD
:101F800023F001032B61DEE71846C6E70038024064
:101F9000003C0240084908B50B7828B11BB9FFF78F
:101FA000FFFE01230B7008BD002BFCD0BDE80840EC
:101FB0000870FFF70BBF00BF9631022010B5024436
:101FC000064B0439D2B2904200D110BD441C00B27D
:101FD00053F8200041F8040FE0B2F4E75028004025
:101FE000104B30B51C6F240407D41C6F44F40074EC
:101FF0001C671C6F44F400441C670B4C236843F4BB
:10200000807323600244094B0439D2B2904200D15C
:1020100030BD441C00B251F8045F43F82050E0B2D8
:10202000F4E700BF00380240007000405028004034
:1020300007B5012201A90020FFF7C0FF019803B0F6
:102040005DF804FB13B50446FFF7F2FFA04206D08B
:1020500002A9012241F8044D0020FFF7C1FF02B0A0
:1020600010BD00000144BFF34F8F064B884204D3DC
:10207000BFF34F8FBFF36F8F7047C3F85C02203000
:10208000F4E700BF00ED00E0034B1B689B0042BF7C
:10209000024B01221A70704774380240C931022085
:1020A000014B1878704700BFC9310220F0B5BFF36B
:1020B0004F8FBFF36F8F1D4B0021C3F85012BFF33A
:1020C0004F8FBFF36F8F5A6942F400325A61BFF3EA
:1020D0004F8FBFF36F8FC3F88410BFF34F8FD3F8C8
:1020E0008020C2F3C904C2F34E325201A50743F661
:1020F000E07602EA060C284621464CEA0007013940
:10210000C3F860724F1C00F14040F6D1203A12F142
:10211000200FEED1BFF34F8F5A6942F480325A61DB
:10212000BFF34F8FBFF36F8FF0BD00BF00ED00E036
:10213000FEE70000084A094B09498B4204D3094ACB
:102140000021934205D3704752F8040F43F8040B63
:10215000F3E743F8041BF4E79C38000858340220E6
:10216000583402205834022030B5D0E91B430022F5
:102170009D6811464FF0FF3004EB42130132954247
:10218000C3F80019C3F81019C3F80809C3F8001BF5
:10219000C3F8101BC3F8080BEED24FF00113C4F8BC
:1021A0001C3830BD890141F02001016103699B06A3
:1021B000FCD4122000F0DCBE1F4B03EB80022DE9A3
:1021C000F047D2F80CC0DD6EDCF81420461CD2F8C3
:1021D00000E005EB063605EB4018516871450BD35E
:1021E000D5F83428012303FA00F022EA0000C5F8EC
:1021F00034081846BDE8F087BCF81040AEEB010388
:10220000A34228BF2346D8F81849A4B2B3EB840FE1
:1022100010D894681F46A4F1040959F804AFC6F811
:1022200000A0042F01D9043FF7E71C440B4494603D
:102230005360D2E70020DDE7CC31022010B5054C19
:102240002046FFF739F84FF0A043E366024B2367BF
:1022500010BD00BFCC310220E83600080378012B06
:1022600070B5054650D12A4BC46E98421BD1294BFC
:102270005A6B42F080025A635A6D42F080025A65EE
:102280005A6D5A6942F080025A615A6922F08002FE
:102290005A610E2143205B6900F0ECFB1E4BE360AA
:1022A0001E4BC4F800380023C4F8003EC02323604E
:1022B000EE6E4FF40413A3633369002BFCDA0123A1
:1022C00033610C2000F054FE3369DB07FCD412208C
:1022D00000F04EFE3369002BFCDA0026A66028468B
:1022E000FFF742FF6B68C4F81068DB68C4F8146835
:1022F000C4F81C684BB90A4BA3614FF0FF3363610C
:10230000A36843F00103A36070BD064BF4E700BF70
:10231000CC3102200038024040140040030020026B
:10232000003C30C0083C30C0F8B5C46E0546002102
:102330002046FFF737FF296F00234FF001128F6807
:10234000C4F834384FF00066C4F81C284FF0FF3052
:1023500004EB431201339F42C2F80069C2F8006BDC
:10236000C2F80809C2F8080BF2D20B68EA6E6B6774
:10237000636210231361166916F01006FBD1122058
:1023800000F0F6FDD4F8003823F4FE63C4F80038FA
:10239000A36943F4402343F01003A3610923C4F865
:1023A0001038C4F814380A4BEB604FF0C043C4F83F
:1023B000103B084BC4F8003BC4F81069C4F800395E
:1023C0006B6F03F1100243F480136A67A362F8BDD8
:1023D000C436000840800010C26E90F86610D2F833
:1023E000003823F4FE6343EA0113C2F80038704753
:1023F0002DE9F8430EB200EB86090D46D9F80C2002
:10240000176807F00303022B55D0032B55D03E4F1E
:102410003E49012B18BF0F46C46E690163184FF087
:10242000000CC3F810CB05F110034FF0010C0CFAAF
:1024300003FC9369002B42D0B2F812E005F1580377
:102440005B014EEA070E44F803E0D4F81C3843EA77
:102450000C032144C4F81C380023C1F81039536917
:102460004FF00108691E08FA05F8ABB3138A928B86
:102470009B08012A88BF5343426F9E1842EA0343D8
:1024800001F1400204EB8202466729465360204670
:10249000FFF788FED9F80C301B8A43EA855348358C
:1024A0006D011F436751D4F81C3843EA0803C4F890
:1024B0001C38BDE8F883164FAEE7164FACE704EBC7
:1024C000461EDEF8003B23F40043CEF8003BD4F870
:1024D0001C3823EA0C03BCE705F13F0304EB83033C
:1024E0000D4A5A6004EB461629462046FFF75AFE6D
:1024F000D6F8003923F40043C6F80039D4F81C3864
:1025000023EA0803D3E700BF008004100080001016
:102510000080081000800C1000040002026F126896
:102520004267FFF721BE00005831C36E49015B5876
:1025300013F4004004D013F4001F14BF0120022044
:10254000704700004831C36E49015B5813F40040E6
:1025500004D013F4001F14BF0120022070470000B4
:1025600000EB8101CB68196A0B6813604B685360FC
:102570007047000000EB810330B5DD68AA6913687D
:10258000D36019B9402B84BF402313606B8A146851
:10259000C26E1C44013CB4FBF3F46343033323F0E9
:1025A000030302EB411043EAC44343F0C043C0F8C5
:1025B000103B2B6803F00303012B09B20ED1D2F8B4
:1025C000083802EB411013F4807FD0F8003B14BFB1
:1025D00043F0805343F00053C0F8003B02EB41123C
:1025E000D2F8003B43F00443C2F8003B30BD00008A
:1025F0002DE9F041244DEE6E06EB40130446D3F86E
:10260000087BC3F8087B38070AD5D6F814381907B1
:1026100006D505EB84032146DB6828465B689847AE
:10262000FA071FD5D6F81438DB071BD505EB840352
:10263000D968CCB98B69488A5E68B6FBF0F200FBBA
:1026400012628AB91868DA6890420DD2121AC3E988
:102650000024202383F311880B482146FFF78AFFCB
:1026600084F31188BDE8F081012303FA04F26B8939
:1026700023EA02036B81CB68002BF3D0214602488A
:10268000BDE8F041184700BFCC31022000EB8103C8
:1026900070B5DD68C36E6C692668E6604A0156BB9A
:1026A0001A444FF40020C2F810092A6802F003020D
:1026B000012A0AB20ED1D3F8080803EB421410F431
:1026C000807FD4F8000914BF40F0805040F00050E3
:1026D000C4F8000903EB4212D2F8000940F00440AC
:1026E000C2F80009D3F83408012202FA01F10143CB
:1026F000C3F8341870BD19B9402E84BF4020206043
:1027000020682E8A841940F00050013C1A44B4FB22
:10271000F6F440EAC440C6E7F8B504461E48C56E64
:1027200005EB4413D3F80869C3F80869F10717D516
:10273000D5F81038DA0713D500EB8403D9684B6954
:102740001F68DA68974218D2D21B00271A605F60B0
:10275000202383F311882146FFF798FF87F3118820
:10276000330617D5D5F834280123A340134211D0DE
:102770002046BDE8F840FFF71FBD012303FA04F22D
:10278000038923EA020303818B68002BE8D02146EA
:102790009847E5E7F8BD00BFCC310220A0482DE9FD
:1027A000F84FC56E6E69AB691E4016F4805F6E61AE
:1027B000044605D0FEF7F2FDBDE8F84F00F07ABC04
:1027C000002E12DAD5F8003E95489B071EBFD5F8BB
:1027D000003E23F00303C5F8003ED5F8043823F08B
:1027E0000103C5F80438FEF7FFFD370502D58C4814
:1027F000FEF7EEFDB0040CD5D5F8083813F0060F3F
:10280000EB6823F470530CBF43F4105343F4A0530C
:10281000EB60310704D56368DB680BB180489847EB
:10282000F2026FD4B3020CD5D4F86C80DFF8F0A1BB
:1028300000274FF00109236F9B68F9B28B4280F0AB
:102840009C80F70619D5E16E0A6AC2F30A1702F0F6
:102850000F0302F4F012B2F5802F00F0B680B2F54B
:10286000402F0AD104EB830301F58051DB68186A1D
:1028700000231A469F4240F09C803303D5F8184845
:102880001DD5E70302D50020FFF7B2FEA50302D550
:102890000120FFF7ADFE600302D50220FFF7A8FE7E
:1028A000210302D50320FFF7A3FEE20202D5042094
:1028B000FFF79EFEA30202D50520FFF799FE7703DE
:1028C0007FF57AAFE60702D50020FFF725FFA507C1
:1028D00002D50120FFF720FF600702D50220FFF795
:1028E0001BFF210702D50320FFF716FFE20602D5E2
:1028F0000420FFF711FFA3067FF55EAF0520FFF769
:102900000BFF59E7D4F86C80DFF814A100274FF0D3
:102910000109236F9B685FFA87FB5B4582D308EB55
:102920004B13D3F8002902F44022B2F5802F22D1B4
:10293000D3F80029002A1EDAD3F8002942F0904289
:10294000C3F80029D3F80029002AFBDB5946E06EC2
:10295000FFF728FC228909FA0BF322EA03032381FB
:1029600004EB8B03DB689B6813B1594650469847CC
:102970005846FFF721FC0137CBE708EB4112D2F8AC
:10298000003B03F44023B3F5802F10D1D2F8003B75
:10299000002B0CDA628909FA01F322EA030363814E
:1029A00004EB8103DB68DB680BB1504698470137C5
:1029B00041E79C0708BF0A68072B98BF027003F124
:1029C00001039CBF120A013054E7023304EB830277
:1029D00001F5805152689069D0F808E0D0E90020F4
:1029E000A2EB000C0022104697420AD104EB8304AC
:1029F00063689B699A683A449A605A6817445F60B2
:102A00003BE712F0030F08BF0868944588BF8EF8B3
:102A1000000002F1010284BF000A0EF1010EE3E79B
:102A2000CC310220C36E03EB4111D1F8003B43F4DB
:102A30000013C1F8003B7047C36E03EB4111D1F89E
:102A4000003943F40013C1F800397047C36E03EB3B
:102A50004111D1F8003B23F40013C1F8003B70474B
:102A6000C36E03EB4111D1F8003923F40013C1F810
:102A70000039704700F1604300F01F02400903F580
:102A8000614309018000C9B200F1604083F800137E
:102A900000F5614001239340C0F880310360704726
:102AA00030B5039C0172043304FB0325C0E90653CF
:102AB000049B03630021059BC160C0E90000C0E9DD
:102AC0000422C0E90842C0E90A11436330BD000096
:102AD000416A0022C0E90411C260C0E90A226FF015
:102AE0000101FEF79BBF0000D0E90432934201D1FF
:102AF000C2680AB9181D7047002070470369196041
:102B0000C2680132C260C2691344826903619342A0
:102B100024BF436A03610021FEF774BF38B5044641
:102B20000D46E3683BB16269131D1268A36213444A
:102B3000E362002007E0237A33B929462046FEF7F6
:102B400051FF0028EDDA38BD6FF00100FBE700000F
:102B5000C368C269013BC36043691344826943612E
:102B6000934224BF436A436100238362036B03B132
:102B70001847704770B52023044683F31188866A8E
:102B80003EB9FFF7CBFF054618B186F311882846FA
:102B900070BDA36AE26A13F8015BA362934202D399
:102BA0002046FFF7D5FF002383F31188EFE70000ED
:102BB0002DE9F84F04460E4690469946202787F3A4
:102BC00011880025AA46D4F828B0BBF1000F09D11E
:102BD00049462046FFF7A2FF20B18BF31188284613
:102BE000BDE8F88FD4E90A13A8EB050B5B1A9B45E7
:102BF00028BF9B46BBF1400F1BD9334601F1400271
:102C000051F8040B43F8040B9142F9D1A36A403305
:102C10004036A3624035D4E90A239A4202D32046C3
:102C2000FFF796FF8AF311884545D8D287F31188BC
:102C3000C9E730465A46FEF7EDF8A36A5B445E44A6
:102C4000A3625D44E7E7000010B5029C0172043303
:102C500004FB0321C0E906130023C0E90A33039BE8
:102C60000363049BC460C0E90000C0E90422C0E91A
:102C70000842436310BD0000026AC260426AC0E9B4
:102C800004220022C0E90A226FF00101FEF7C6BE4D
:102C9000D0E904239A4201D1C26822B9184650F8FB
:102CA000043B0B607047002070470000C368C26996
:102CB0000133C3604369134482694361934224BF73
:102CC000436A43610021FEF79DBE000038B504460B
:102CD0000D46E3683BB123691A1DA262E269134401
:102CE000E362002007E0237A33B929462046FEF745
:102CF00079FE0028EDDA38BD6FF00100FBE7000037
:102D000003691960C268013AC260C26913448269EA
:102D10000361934224BF436A036100238362036B10
:102D200003B118477047000070B5202304460E46D3
:102D300083F31188856A35B91146FFF7C7FF10B1D3
:102D400085F3118870BDA36A1E70A36AE26A01331D
:102D50009342A36204D3E16920460439FFF7D0FF10
:102D6000002080F31188EDE72DE9F84F04460D4669
:102D700091469A464FF0200888F311880026B34602
:102D8000A76A4FB951462046FFF7A0FF20B187F34D
:102D900011883046BDE8F88FD4E90A07A9EB06038D
:102DA0003F1A9F4228BF1F46402F1BD905F1400301
:102DB00055F8042B40F8042B9D42F9D1A36A403307
:102DC000A3624036D4E90A239A4204D3E16920463B
:102DD0000439FFF795FF8BF311884E45D9D288F35C
:102DE0001188CDE729463A46FEF714F8A36A3B441A
:102DF0003D44A3623E44E5E7D0E904239A4217D15B
:102E0000C3689BB1836A8BB1043B9B1A0ED01360DD
:102E1000C368013BC360C3691A44836902619A4273
:102E200024BF436A0361002383620123184670476D
:102E30000023FBE700F080B94FF080430022586385
:102E40001A610222DA6070474FF080430022DA6094
:102E5000704700004FF0804358637047FEE7000062
:102E600010B5194CFEF7C4FCFEF7E6FD80221749A9
:102E70002046FEF76DFD012344F8180C0374144B33
:102E8000144AD96821F4E0610904090C0A43124983
:102E9000DA60CA6842F08072CA60104A1049C2F80B
:102EA000B01F116841F0010111601022DA77202271
:102EB00083F82220002383F3118862B60948BDE815
:102EC0001040FEF765BD00BF582A0220F436000806
:102ED00000ED00E00003FA05F0ED00E0001000E076
:102EE00055CEACC5FC3600082DE9F84F1F4C4FF00D
:102EF0000008656904F11407C1464FF08043266A53
:102F00005B6AAA689E1B96421DD34FF0200AAA68EE
:102F1000236AD5F80CB0134423622B68BB425F6070
:102F2000A6EB02066361C5F80C8001D1FFF78CFFA8
:102F300089F311882869D8478AF311886569AB68D5
:102F40009E42E4D2D9E76269BA420CD0916823620A
:102F50008E1B9660A86802282CBF1818981CBDE824
:102F6000F84FFFF777BFBDE8F88F00BF302A022087
:102F7000034B59685A68521A9042FBD8704700BFF9
:102F8000001000E04B6843608B688360CB68C360CF
:102F90000B6943614B6903628B6943620B68036091
:102FA0007047000008B5274B27481A6940F2FF71A7
:102FB0000A431A611A6922F4FF6222F007021A61B9
:102FC0001A691A6B0A431A631A6D0A431A651F4A73
:102FD0001B6D1146FFF7D6FF1D4802F11C01FFF7DC
:102FE000D1FF1C4802F13801FFF7CCFF1A4802F16B
:102FF0005401FFF7C7FF194802F17001FFF7C2FF44
:10300000174802F18C01FFF7BDFF164802F1A80135
:10301000FFF7B8FF144802F1C401FFF7B3FF1348EC
:1030200002F1E001FFF7AEFF114802F1FC01FFF7EA
:10303000A9FF104802F58C71FFF7A4FFBDE8084016
:1030400000F0DCB800380240000002401C370008E5
:103050000004024000080240000C02400010024040
:103060000014024000180240001C024000200240F0
:10307000002402400028024008B500F033FAFFF7B0
:10308000EFFEFFF701F8BDE80840FEF7DFBD0000E6
:1030900070470000064A536823F001035360EFF3C2
:1030A0000983683383F30988002383F31188704709
:1030B00030EF00E010B5202383F31188104B5B68DC
:1030C00013F4006318D0F1EE103AEFF309844FF0D7
:1030D000807344F84C3C0B4BDB6844F8083CA4F18B
:1030E000680383F30988FEF711FC18B1064B44F816
:1030F000503C10BD054BFAE783F31188F9E700BF98
:1031000000ED00E030EF00E0510300085403000838
:103110004FF0804310B51A69920708D500241C614E
:10312000202383F31188FFF7DFFE84F31188BDE8C5
:103130001040FFF7BFBF0000104B1A6C42F00102B5
:103140001A641A6E42F001021A660D4A1B6E9368E9
:1031500043F0010393604FF080436B229A624FF07B
:10316000FF32DA6200229A615A63DA605A60012201
:103170005A6108211A601C20FFF77CBC003802400D
:10318000002004E01B4B1A696FEA42526FEA525268
:103190001A611A69C2F30A021A614FF0FF301A6904
:1031A0005A69586100215A6959615A691A6A62F06C
:1031B00080521A621A6A02F080521A621A6A5A6AB5
:1031C00058625A6A59625A6A0B4A106840F4807011
:1031D0001060186F00F44070B0F5007F1EBF4FF410
:1031E000803018671967536823F40073536000F048
:1031F00059B900BF0038024000700040354B364AD4
:103200001A64364A4FF4404111601A6842F00102D4
:103210001A601A689207FCD59A6822F003029A6035
:103220002C4B19469A6812F00C02FBD1186800F07A
:10323000F90018609A601A6842F480321A600B68CC
:103240009B03FCD54B6F43F001034B67214B5A6F37
:103250009007FCD5224A5A601A6842F080721A60C0
:103260001E4B1A4659684904FCD5196841F480314F
:1032700019605368D803FCD5136843F40033136016
:10328000164A53689903FCD5124B1A689201FCD573
:10329000144A9A6040F20112C3F88C200022C3F84D
:1032A0009020114A40F2073111609A6842F0020200
:1032B0009A60084B9A6802F00C02082AFAD15A6CFC
:1032C00042F480425A645A6E42F480425A665B6EFF
:1032D000704700BF0038024000040010007000403A
:1032E000086C400900948838003C0240084A08B540
:1032F000516913680B4003F00103536123B1054A80
:1033000013680BB150689847BDE80840FFF7D2BE7C
:10331000003C0140B0290220084A08B551691368F1
:103320000B4003F00203536123B1054A93680BB1CC
:10333000D0689847BDE80840FFF7BCBE003C01409C
:10334000B0290220084A08B5516913680B4003F000
:103350000403536123B1054A13690BB150699847BF
:10336000BDE80840FFF7A6BE003C0140B02902209E
:10337000084A08B5516913680B4003F0080353610C
:1033800023B1054A93690BB1D0699847BDE808405D
:10339000FFF790BE003C0140B0290220084A08B562
:1033A000516913680B4003F01003536123B1054AC0
:1033B000136A0BB1506A9847BDE80840FFF77ABE20
:1033C000003C0140B0290220174B10B55A691C6817
:1033D000144004F478725A61A30604D5134A936A20
:1033E0000BB1D06A9847600604D5104A136B0BB135
:1033F000506B9847210604D50C4A936B0BB1D06BE8
:103400009847E20504D5094A136C0BB1506C9847F4
:10341000A30504D5054A936C0BB1D06C9847BDE861
:103420001040FFF747BE00BF003C0140B02902201A
:103430001A4B10B55A691C68144004F47C425A6156
:10344000620504D5164A136D0BB1506D98472305DC
:1034500004D5134A936D0BB1D06D9847E00404D5A1
:103460000F4A136E0BB1506E9847A10404D50C4A55
:10347000936E0BB1D06E9847620404D5084A136F5F
:103480000BB1506F9847230404D5054A936F0BB1D5
:10349000D06F9847BDE81040FFF70CBE003C0140DC
:1034A000B0290220062108B50846FFF7E3FA0621F5
:1034B0000720FFF7DFFA06210820FFF7DBFA0621D5
:1034C0000920FFF7D7FA06210A20FFF7D3FA0621D1
:1034D0001720FFF7CFFA06212820BDE80840FFF7A4
:1034E000C9BA000008B5FFF74DFEFDF739FDFDF73D
:1034F000E1FEFDF7BBFDFFF7CBFDBDE80840FFF7A0
:1035000099BC0000034611F8012B03F8012B002A97
:10351000F9D170471210121312110000001041006F
:1035200001105A0053544D3332463F3F3F3F3F3F17
:103530000053544D333246375B347C355D7800534D
:10354000544D333246375B367C375D7800000000DF
:1035500000000000E50F0008D10F00080D10000862
:10356000F90F000805100008F10F0008DD0F000832
:10357000C90F0008691000080000000001000000E9
:10358000000000000200000000000000051200081A
:103590006D12000840004000082F0220182F022062
:1035A0000200000000000000030000000000000016
:1035B000B11200080000000010000000282F0220B7
:1035C000000000000100000000000000CC310220DB
:1035D000010102004172647550696C6F74002542EC
:1035E0004F415244252D424C002553455249414CF0
:1035F00025000000ED1B0008551B00087D11000888
:10360000D11B0008430000000C36000809024300EB
:10361000020100C032090400000102020100052479
:103620000010010524010001042402020524060003
:1036300001070582030800FF09040100020A0000D7
:10364000000705010240000007058102400000005C
:10365000120000005836000812011001020000405C
:10366000830440570002010203010000040309041F
:1036700025424F415244250052392D50696C6F74D8
:1036800000303132333435363738394142434445DE
:103690004600000000800000008000000080000064
:1036A0000080000000000200000004000000040090
:1036B00000000400000004000000040000000400FA
:1036C0000000040000000000FD130008D1160008EF
:1036D0007D1700084000400044320220443202209E
:1036E0000100000054320220800000004001000070
:1036F000050000006D61696E0000000014370008CD
:103700006032022058340220010000005D2E0008C3
:103710000000000069646C65000000000000802A61
:1037200000000000AAAAAAAA00000000FFFF0000F3
:103730000000000000A00A000000000000000000DF
:10374000AAAAAAAA00000000FFFF000000000000D3
:10375000000000000000000000000000AAAAAAAAC1
:1037600000000000FFFF000000000000000000005B
:103770000000000100000000AAAAAAAA00000000A0
:10378000FFEF00000000000000000000000000004B
:1037900000000000AAAAAAAA00000000FFFF000083
:1037A0000000000000000000000000000000000019
:1037B000AAAAAAAA00000000FFFF00000000000063
:1037C000000000000000000000000000AAAAAAAA51
:1037D00000000000FFFF00000000000000000000EB
:1037E0000000000000000000AAAAAAAA0000000031
:1037F000FFFF0000000000000000000000000000CB
:1038000000000000AAAAAAAA00000000FFFF000012
:1038100000000000000000000000000000000000A8
:103820000000000000000000000000000000000098
:103830000000000000000000000000000000000088
:103840000000000000000000000000000000000078
:10385000FF00000000000000243500083F000000C9
:1038600049040000313500083F0000005104000009
:103870003F3500083F0000000096000000000800EF
:10388000040000006C36000800000000000000008A
:103890000000000000000000000000000000000028
:00000001FF
