:020000040800F2
:1000000000040020E1010008E3010008E30100080A
:10001000E3010008E3010008E3010008E301000830
:10002000E3010008E3010008E3010008352E0008A1
:10003000E3010008E3010008E3010008E301000810
:10004000E3010008E3010008E3010008E301000800
:10005000E3010008E301000895300008C130000802
:10006000ED3000081931000845310008E3010008AF
:10007000E3010008E3010008E3010008E3010008D0
:10008000E3010008E3010008E3010008E3010008C0
:10009000E3010008E3010008E301000871310008F2
:1000A000E3010008E3010008E3010008E3010008A0
:1000B000B12E0008E3010008E3010008E301000895
:1000C000E3010008E3010008E3010008E301000880
:1000D000E3010008E3010008E3010008E301000870
:1000E000D9310008E3010008E3010008E30100083A
:1000F000E3010008E3010008E3010008E301000850
:10010000E3010008E3010008E3010008E30100083F
:10011000E3010008E3010008E3010008E30100082F
:10012000E3010008E3010008E3010008E30100081F
:10013000E3010008E3010008E3010008E30100080F
:10014000E3010008E3010008E30100088D25000831
:10015000E3010008E3010008E3010008E3010008EF
:10016000E3010008E3010008E3010008E3010008DF
:10017000E3010008E3010008E3010008E3010008CF
:10018000E3010008E3010008E3010008E3010008BF
:10019000E3010008E3010008E3010008E3010008AF
:1001A000E3010008E3010008E3010008E30100089F
:1001B000E3010008E3010008E3010008E30100088F
:1001C000E3010008E3010008E3010008E30100087F
:1001D000E3010008E3010008E3010008E30100086F
:1001E00002E000F000F8FEE772B6394880F30888B4
:1001F000384880F3098838484EF60851CEF200019D
:10020000086040F20000CCF200004EF63471CEF2ED
:1002100000010860BFF34F8FBFF36F8F40F2000003
:10022000C0F2F0004EF68851CEF200010860BFF334
:100230004F8FBFF36F8F4FF00000E1EE100A4EF6C4
:100240003C71CEF200010860062080F31488BFF3F1
:100250006F8F01F063FE02F083FD4FF055301F49B0
:100260001B4A91423CBF41F8040BFAE71C49194A6A
:1002700091423CBF41F8040BFAE71A491A4A1B4B5A
:100280009A423EBF51F8040B42F8040BF8E70020F5
:100290001749184A91423CBF41F8040BFAE701F0B4
:1002A00041FE02F0B9FD144C144DAC4203DA54F88F
:1002B000041B8847F9E700F03FF8114C114DAC42A0
:1002C00003DA54F8041B8847F9E701F029BE00005F
:1002D000000400200024002000000008000000208E
:1002E00000040020003600080024002028240020FC
:1002F0002824002018340020E0010008E001000854
:10030000E0010008E00100082DE9F04F2DED108A12
:10031000C1F80CD0C3689D46BDEC108ABDE8F08FD3
:10032000002383F311882846A047002001F08AFAB1
:1003300001F04EFA00DFFEE71A4B6FF0700270B565
:1003400000241A700F225C709C70DC701C715C7150
:100350009C71DC711C725C729A72DC7201F0B6FDE9
:10036000064601F0D5FD054650B90F4B9E4217D009
:1003700001339E4241F2883412BF05460024012514
:10038000002001F0ADFD0DB100F0B2F800F014FD59
:1003900000F0FAFB204600F005F900F0A9F8F9E7B3
:1003A0000446EDE728240020010007B008B500F05E
:1003B0008DFBA0F120035842584108BD07B5054BFD
:1003C00002211B88ADF8043001A800F0CDFB03B07A
:1003D0005DF804FBD4320008064991F8243033B1AB
:1003E00000230822086A81F8243000F0EFBB0120C6
:1003F000704700BF482400202DE9F84F224C1646D4
:1004000094F824200746884682BBDFF87C90002EB3
:1004100038D094F824A0BAF1000F05D12022FF2192
:100420004846276200F0B6FCCAF10805B54228BF6D
:1004300035465FFA85FBAD0041462A4604EB8A004B
:1004400000F080FC94F82430A6EB0B069B445FFA86
:100450008BFBBBF1080F2F44A844F6B284F824B0FC
:10046000D5D1FFF7B9FF0028D1D108E0236A03EB0B
:1004700082038342C9D0FFF7AFFF0028C5D1002017
:10048000BDE8F88F0120FBE74824002010B52023A9
:1004900083F311881248C3680BB101F059FA0023A5
:1004A000104A0F484FF47A7101F016FA002383F3D3
:1004B00011880D4C236813B12368013B23606368E6
:1004C00013B16368013B6360084B1B7833B9636801
:1004D00023B9022000F02CFC3223636010BD00BF62
:1004E000342400208D040008782900207024002086
:1004F00010B5244B244A1968013142D00433934289
:10050000F9D1224C224B22689A423AD9214B9B685E
:1005100003F1006303F580339A4232D2002000F0E9
:100520004DFB1D4B0220187000F0FAFB1B4B1A6CA0
:1005300000221A64196E1A66196E596C5A64596E43
:100540005A665A6E5A6942F080025A615A6922F01C
:1005500080025A615A691A6942F000521A611A6996
:1005600022F000521A611B6972B60D4A054B1360E6
:100570001B682268202181F311889D4683F3088837
:10058000104710BD00000108200001080400010808
:10059000FFFF0008282400207024002000380240BB
:1005A00008ED00E02DE9F04FAD4C97B020228146D8
:1005B000FF210EA8A66800F0EDFBAA4A1378A24618
:1005C000A3B9A9480121C3601170202383F31188C6
:1005D000C3680BB101F0BCF90023A44AA2484FF450
:1005E0007A7101F079F9002383F31188B9F1000FD2
:1005F00002D09F4BC3F800909E4B9D4A00241C7074
:100600005460254627469846012000F089FBB9F141
:10061000000F04D0964B1B68002B00F02C820020AA
:1006200000F054FA0290029B002BF0DB012000F056
:100630006DFB029B213B122BE6D801A252F823F05E
:100640008D060008AB060008190700080906000817
:100650000906000809060008A7070008E5090008C0
:100660008D0800084509000877090008A509000859
:1006700009060008BD09000809060008350A000837
:1006800093070008090600087D0A00080220FFF70A
:100690008DFE002840F01082774B1B88ADF8243087
:1006A000022109A800F060FAAEE74FF47A7000F07A
:1006B0000DFA031E0193EFDB0220FFF777FE83465E
:1006C0000028E9D0019B581E042800F2F781DFE8DA
:1006D00000F0030D1013160016A8052340F8343D52
:1006E000042100F041FA5C46002752E004215C48F6
:1006F000F7E704216148F4E704216148F1E71C248D
:10070000204600F05DFA04340990042109A800F0A5
:100710002BFA2C2CF4D1E6E7002DBDD0002CBBD059
:100720000220FFF743FE0546002800F0C9810120A2
:1007300000F044FA022088F8000000F0F1FA0024EA
:10074000E3B21846019300F049FA834648B1019B91
:10075000184600F053FA01340028F1D12C46494BD9
:100760009BE70123022088F8003000F0CFFA5E46B4
:10077000DAF80830B34206D9304600F021FA0130E9
:10078000ECD10436F4E73A4B002688F800605E604E
:100790002C4600F007FB1DB1002C18BF4FF00009DC
:1007A000FFF70CFE30E7002D3FF476AF002C3FF44E
:1007B00073AF022088F8000000F0B2FA322000F097
:1007C00085F9B0F1000BC0F27B811BF0030540F00E
:1007D0007781DAF808200BEB0603934200F2708170
:1007E000BBF5807F00F26C81274B0193AB450DDD9B
:1007F0004FF47A7000F06AF90290029A002AC0F26F
:100800005F81019B029AEA540135EEE7C820FFF7A9
:10081000CDFD0546002800F053811F2E11D8C6F1EA
:1008200020045C4528BF5C460EAB26F00300224640
:100830001549184400F086FA2246FF21124800F0BC
:10084000A9FA4FEAAB0B5FFA8BF20F493046FFF77C
:10085000D3FD0446002881D006EB8B06054698E7B9
:100860002824002074250020342400208D04000852
:100870007829002070240020D63200082C24002083
:1008800030240020D8320008742400200220FFF712
:100890008DFD00283FF400AFFFF79EFD00283FF4D8
:1008A000FBAE4FF0000B5946DAF808305B4542D9F1
:1008B000BBF11F0F38D80E9B013335D02BF003034B
:1008C00016AA134453F8203C09937E484368CBB9D9
:1008D0001A464FF0080C02F0010E5208BEF1000F4C
:1008E00007D082F06D4282F4380282F4034282F033
:1008F0002002BCF1010CEED140F823200133B3F506
:10090000807FE5D16F4800220DF1240C12F80C30E5
:100910004B40DBB2013250F82330042A83EA112124
:10092000F4D10BF1040BBFE75846019100F048F9F0
:1009300001990990C9E716A840F84C1D042100F060
:1009400013F926E716A8002340F8343D642100F08F
:10095000E7F800287FF4A0AE0220FFF727FD00286B
:100960003FF49AAE099800F05BF916AB43F8480DD6
:1009700004211846E3E716A8002340F8343D64211B
:1009800000F0CEF800287FF487AE0220FFF70EFDBE
:1009900000283FF481AE099800F050F916AB43F8F7
:1009A000440DE5E70220FFF701FD00283FF474AE97
:1009B00000F04AF916AB43F8400DD9E70220FFF7E3
:1009C000F5FC00283FF468AE09A9142000F042F9B4
:1009D000834616A8042140F83CBD00F0C5F85946EE
:1009E00009A8ACE7322000F071F8B0F1000BFFF677
:1009F00053AE1BF0030F7FF44FAEDAF808200BEB79
:100A0000070393423FF648AE0220FFF7CFFC0028D1
:100A10003FF442AE2BF0030BBB445F453FF4B9AE4D
:100A2000384600F0CDF80421089008A800F09CF8A2
:100A30000437F2E74FF47A70FFF7B8FC00283FF470
:100A40002BAEFFF7C9FC00283FF489AE0E9B0133A3
:100A50000CD008220EA90020FFF7CEFC00283FF49E
:100A60007EAE2022FF210EA800F094F9FFF7A6FC2D
:100A7000154800F0EDFE17B0BDE8F08F16A8002372
:100A800040F8343D642100F04BF8834600287FF4A1
:100A900003AE0220FFF78AFC00283FF4FDADFFF70C
:100AA0008DFC41F2883000F0D3FE099800F0AEF9D9
:100AB000D94600F077F9A7E505466AE60027EBE599
:100AC0002546E9E578250020A086010037B5114BC1
:100AD0001A780132D2B20024012A01468DF807406B
:100AE00011D80D4803681D6A4FF47A734B430122F5
:100AF0000DF10701A847012805D1084B9DF8070013
:100B00001C7003B030BD4FF4FA7000F0A1FE4FF03E
:100B1000FF30F6E700240020C829002084290020A7
:100B200038B50E4B1A780132D2B2012A05460ED8DA
:100B30000B4803681C6A4FF47A734B43042229461E
:100B4000A047042803D1074B0020187038BD4FF48C
:100B5000FA7000F07DFE4FF0FF30F7E70024002030
:100B6000C82900208429002030B4054C2368DD69A1
:100B7000044B0A46AC460146204630BC604700BFE5
:100B8000C8290020A086010070B501F0A7F8094C23
:100B9000094E2070002530682378834208D901F07F
:100BA00097F8336805440133B5F5803F3360F2D3DD
:100BB00070BD00BF852900208029002001F038B9D0
:100BC00000F1006000F580300068704700F10060BF
:100BD000920000F5803001F0C3B80000054B1A68A0
:100BE000054B1B789B1A834202D9104401F070B860
:100BF00000207047802900208529002038B5074D46
:100C000004462868204401F06BF828B9286820447D
:100C1000BDE8384001F07CB838BD00BF8029002015
:100C200010F0030308D1B0F5007F05D800F10050A3
:100C3000A0F508400068704700207047014BC0587D
:100C4000704700BF107AFF1F014B1868704700BF44
:100C5000002004E0F0B52A4B1A68C2F30B03120C13
:100C600063B140F21344A34231D040F21944A3428D
:100C70002FD040F22144A3422DD10323214C0C2537
:100C800005FB03435E6893F9083042F20104A24277
:100C900024D0B2F5805F23D041F20104A24221D0DA
:100CA00041F20304A2421FD041F20704A24208BF4E
:100CB0003123451E0D44013E0A46AA421ED216F9B2
:100CC000017F541C97B104F8017C2246F5E701230B
:100CD000D4E70223D2E73F230B4ED6E73323E3E7E3
:100CE0004123E1E75A23E4E75923E2E72C20A54218
:100CF000107001D9941C5370601AF0BD1446FBE7C4
:100D0000002004E0E8320008DC320008022802BFBC
:100D1000024B4FF400129A61704700BF000402407A
:100D2000022802BF014B20229A6170470004024052
:100D3000022801BF024A536983F0200353617047C0
:100D40000004024010B50023934203D0CC5CC4548D
:100D50000133F9E710BD000030B5441E14F9010F4E
:100D60000B4640B193F90050854201F1010102D1D7
:100D700012B1013AF2E71AB193F90020801A30BD9E
:100D80001046FCE702460346981A13F9011B002996
:100D9000FAD1704702440346934202D003F8011B84
:100DA000FAE77047024B1A78024B1A70704700BF7F
:100DB000842900200024002038B5104D104C28460E
:100DC00000F0A2F82146284600F0CAF824680D4831
:100DD000626DD2F8043843F00203C2F8043800F020
:100DE00037FD0949204600F0BFF9626DD2F804389A
:100DF00023F00203C2F8043838BD00BFC829002020
:100E0000B433000840420F00DC3300087047000094
:100E1000026843681143016003B11847704700003E
:100E200013B5446BD4F894341A681178042915D199
:100E3000217C022912D11979128901238B40134296
:100E40000CD101A904F14C0001F006FED4F8944441
:100E5000019B21790246206800F0D2F902B010BD52
:100E6000143001F089BD00004FF0FF33143001F061
:100E700083BD00004C3001F05BBE00004FF0FF333B
:100E80004C3001F055BE0000143001F057BD000099
:100E90004FF0FF31143001F051BD00004C3001F033
:100EA00027BE00004FF0FF324C3001F021BE0000A1
:100EB000D0F8942438B5136819780429054601D070
:100EC000012038BD017C0229FAD112795C89012008
:100ED00090400440F4D105F1140001F0E9FC024611
:100EE0000028EDD0D5F894544FF4807328686979C0
:100EF00000F074F92046E4E7406BFFF7D9BF00002B
:100F000000207047704700007FB5124B036000233C
:100F10004360C0E90233012502260F4B05740446E5
:100F20000290019300F18402294600964FF48073E9
:100F3000143001F099FC094B0294CDE9006304F5EB
:100F400023724FF48073294604F14C0001F060FDD8
:100F500004B070BD38330008F90E0008210E0008F7
:100F60000B68202282F311880A7903EB82029061D8
:100F70004A79093243F822008A7912B103EB8203DD
:100F8000986102230374C0F89414002383F311883A
:100F90007047000038B5037F044613B190F8543011
:100FA000ABB9201D01250221FFF732FF04F1140027
:100FB00025776FF0010100F073FC84F8545004F1C0
:100FC0004C006FF00101BDE8384000F069BC38BD4D
:100FD00010B5012104460430FFF71AFF00232377E0
:100FE00084F8543010BD000038B504460025143094
:100FF00001F052FC04F14C00257701F021FD201D89
:1010000084F854500121FFF703FF2046BDE8384023
:10101000FFF74EBF90F8443003F06003202B07D158
:1010200090F84530202B03D3212B03D9222B09D054
:1010300000207047054B83630723C36300230364C9
:10104000012070470023C0E90E33F8E70124002097
:10105000D0F8943437B51A681178042904461AD1A7
:10106000017C022917D11979128901238B4013427F
:1010700011D100F14C05284601F0A2FD58B101A99B
:10108000284601F0E9FCD4F89444019B21790246FA
:10109000206800F0B5F803B030BD000000EB81031C
:1010A000F7B59C6905460E46F4B1202383F31188F9
:1010B00005EB8607201D0821FFF7AAFEFB685B6988
:1010C0001B684C3413B1204601F0D4FC01A9204622
:1010D00001F0C2FC024648B1019B3146284600F0AF
:1010E0008FF8002383F3118803B0F0BDFB685A69C1
:1010F0001268002AF5D01B8A013B1340F1D105F19B
:101100004402EAE7093138B550F82140DCB1202328
:1011100083F31188D4F894241368527903EB820383
:10112000DB689B695D6845B104216018FFF770FEBC
:10113000294604F1140001F0C5FB2046FFF7B8FE74
:10114000002383F3118838BD7047000000F06EBFA4
:10115000012303700023C36183620362C36243629D
:101160000363C0E90133704738B50446202383F395
:10117000118800254160C0E90355C0E9055500F01C
:1011800065FF0223237085F3118838BD70B500EB2D
:10119000810305465069DA600E46144618B11022E4
:1011A0000021FFF7F7FDA06918B110220021FFF719
:1011B000F1FD31462846BDE8704001F011B800004D
:1011C000028902F001020281428902F00102428199
:1011D0000022C0E90422826101F098B8F0B400EB6B
:1011E00081044789E4680125A4698D403D43458118
:1011F00023600023A2606360F0BC01F0B3B800007C
:10120000F0B400EB81040789E468012564698D402E
:101210003D43058123600023A2606360F0BC01F0C0
:101220002DB9000070B50223002504460370C56483
:10123000C0E90255C0E90455856180F8345000F0DA
:101240006BFF63681B6823B129462046BDE87040E8
:10125000184770BD436802781B6880F8502005224B
:1012600002700BB10421184770470000436890F8E2
:1012700050201B6802700BB1052118477047000011
:1012800090F8343070B5044613B1002380F8343040
:1012900004F14402204601F05BF863689B6863BB7D
:1012A00094F8443013F0600515D194F8452003F00C
:1012B0007F0343EA022340F20232934200F00881A6
:1012C0005BD8022B00F0DB803FD8002B00F086803B
:1012D000012B00F0CE800021204601F091FA002180
:1012E000204601F083FA63681B6813B1062120468B
:1012F0009847062384F8343070BD2046984700286C
:10130000CED094F84B2094F84A3043EA0223E26BA3
:101310009A4288BFE36394F94430E56B002B4FF0A9
:10132000200380F2F780002D00F0E680092284F887
:10133000342083F311880021D4E90E232046FFF7DF
:101340005FFF002383F31188D6E7B3F5817F00F0B8
:10135000AB80B3F5407F48D0B3F5807FBBD194F824
:101360004630012BB7D1B4F84C3023F00203C4E966
:101370000E55A4F84C302564C3E740F20162934255
:101380001DD8B3F5C06F3AD2B3F5A06FA3D1B4F8AE
:101390004430B3F5A06F0ED194F8463084F84E3047
:1013A000204600F011FF63681B6813B1012120463D
:1013B0009847032323700023C4E90E3313E0B3F5E9
:1013C000106F32D040F60242934252D0B3F5006F14
:1013D00081D104F14F03A363012324E004F14C0203
:1013E000A2630222E26323648BE794F84630012B68
:1013F0007FF471AFB4F84C3043F00203B7E794F8D0
:101400004920616894F848304E6894F8471043EAE0
:101410000223204694F84620B04700283FF45BAFF3
:101420004368A3630368E363A5E72378042B10D123
:10143000202383F311882046FFF7C2FE85F311882D
:10144000636884F84F501B68032121700BB120465C
:10145000984794F84630002BADD084F84F300423E1
:10146000237063681B68002BA5D002212046984793
:10147000A1E7354BA3630223E3630023B3E794F8AA
:1014800048301D0603F00F0120460AD500F052FF38
:10149000012804D002287FF41EAF2C4BEAE72C4B26
:1014A000E8E700F039FFF3E794F84630002B7FF4CB
:1014B00012AF94F8483013F00F013FF47CAF1A06D6
:1014C000204602D501F0B0F975E701F0A3F972E703
:1014D00094F84630002B7FF4FEAE94F8483013F0B9
:1014E0000F013FF468AF1B06204602D501F088F9D2
:1014F00061E701F07BF95EE7142284F8342083F37E
:1015000011882B462A4629462046FFF767FE85F3B9
:101510001188F1E65DB1152284F8342083F3118837
:101520000021D4E90E232046FFF758FE09E70B22DD
:1015300084F8342083F311882B462A462946204616
:10154000FFF75EFEE3E700BF683300086033000882
:101550006433000838B590F834300446152B39D878
:10156000DFE803F03E38383838383E38380B293950
:1015700038383838383838383E3E90F84B1090F8C4
:101580004A20C36B42EA0122934214D2C268128AF3
:10159000B3FBF2F502FB15356DB9202383F31188F7
:1015A0002B462A462946FFF72BFE85F311880A238E
:1015B00084F834300EE0142384F83430202383F38D
:1015C000118800231A4619462046FFF707FE00231C
:1015D00083F3118838BD036C03B198470023E7E714
:1015E000002101F00DF90021204601F0FFF86368A9
:1015F0001B6813B10621204698470623D8E7000050
:1016000090F83420152A38B5044617D801239340A2
:1016100040F6416213421ED113F480150FD19B0294
:101620000CD50B2380F83430202383F311882B460C
:101630002A462946FFF7E4FD85F3118838BDC368C3
:101640009B695B68002BF9D1036C03B198470023B9
:1016500084F83430F2E7002101F0D2F8002120466E
:1016600001F0C4F863681B6813B10621204698474F
:101670000623EDE7024B0022C3E900339A6070476E
:1016800088290020002303748268054B1B68996831
:101690009142FBD25A680360426010605860704704
:1016A0008829002008B5202383F31188037C032BAD
:1016B00005D0042B0DD02BB983F3118808BD4369E5
:1016C00000221A604FF0FF334361FFF7DBFF002376
:1016D000F2E7D0E900231A6002685360F2E70000E5
:1016E000002303748268054B1B6899689142FBD8FC
:1016F0005A68036042601060586070478829002073
:10170000054B19690874186802681A6053601861FB
:1017100001230374FEF7F8BD8829002030B54B1C67
:1017200087B005460A4C10D023690A4A01A800F088
:10173000D3F82846FFF7E4FF049B13B101A800F09B
:1017400007F92369586907B030BDFFF7D9FFF8E7FB
:1017500088290020A516000838B50C4D41612B6979
:1017600081689A689142044603D8BDE83840FFF783
:1017700089BF1846FFF786FF01232C6101462374B9
:101780002046BDE83840FEF7BFBD00BF88290020D5
:10179000044B1A681B6990689B68984294BF0020AC
:1017A000012070478829002010B5084C2368206963
:1017B0001A6822605460012223611A74FFF790FFB7
:1017C00001462069BDE81040FEF79EBD8829002033
:1017D000FFF7EABF82600222028270478368A3F1AA
:1017E0007C0243F80C2C026943F83C2C426943F814
:1017F000382C074A43F81C2CC26843F8102C0222EC
:1018000003F8082C002203F8072CA3F118007047F6
:101810002103000810B5202383F31188FFF7DEFFB2
:1018200000210446FFF798FF002383F31188204628
:1018300010BD0000024B1B6958610F20FFF760BF0D
:1018400088290020202383F31188FFF7F3BF0000CD
:1018500008B50146202383F311880820FFF75EFFB7
:10186000002383F3118808BD49B1064B42681B6908
:1018700018605A60136043600420FFF74FBF4FF0B9
:10188000FF307047882900200368984206D01A6804
:101890000260506059611846FFF7F4BE70470000BF
:1018A00038B504460D462068844200D138BD03682F
:1018B00023605C604561FFF7E5FEF4E7054B03F14B
:1018C0001402C3E905224FF0FF310022C3E90712D9
:1018D000704700BF88290020F8B5C0E903231B4AE0
:1018E00006461046022950F8145F4FF0804338BF77
:1018F000022185425B6A17460AD11362C2E9056676
:101900005818C6E90055B160BDE8F84001F078B953
:10191000106A1B1A5C18AB6802D3E41A2D6804E045
:10192000A34202D9204401F079F9AB68A342F4D371
:101930006B68736035601E606E60B460AB681C1BC2
:101940004FF0FF33AC60FB61F8BD00BF8829002079
:1019500010B41B4C234653F8141F814210D0D0E919
:1019600000210A60026851609A424FF00001C16094
:1019700003D0936881680B4493605DF8044B704713
:101980000A68626100209A425360C86003D15DF822
:10199000044B01F03DB993688868034493604FF0AD
:1019A0008042206A526A121A9342E6D9991A012992
:1019B00098BF931C18445DF8044B01F02FB900BF89
:1019C0008829002000207047FEE7000070470000D3
:1019D0004FF0FF3070470000022906D0032906D0DF
:1019E0000129064818BF0020704705487047032AA0
:1019F0009ABF044800EBC20000207047383400084A
:101A0000EC3300080824002070B59AB001AD0646FA
:101A100008462946144600F095F82846FFF7B2F923
:101A2000C0B2431C5B00C6E900342370032363701B
:101A3000002302341946DAB2904204F1020401D8BC
:101A40001AB070BDEA5C04F8022C04F8011C0133E2
:101A5000F1E7000008B5202383F311880348FFF75E
:101A6000F7FA002383F3118808BD00BFC8290020BE
:101A700010B50446052916D8DFE801F0161503163F
:101A8000161D202383F311880E4A0121FFF77EFBE8
:101A900020460D4A0221FFF779FB0C48FFF7A4FA14
:101AA000002383F3118810BD202383F31188074896
:101AB000FFF770FAF4E7202383F311880348FFF758
:101AC00087FAEDE76C33000890330008C82900203E
:101AD00038B50C4D0C4C0D492A4604F10800FFF7AF
:101AE00093FF05F1CA0204F110000949FFF78CFFCA
:101AF00005F5CA7204F118000649BDE83840FFF741
:101B000083BF00BF902E002008240020BC330008B3
:101B1000C6330008D133000870B5044608460D46A8
:101B2000FFF730F9C6B22046013403780BB91846E6
:101B300070BD32462946FFF70FF90028F3D1012086
:101B4000F6E700002DE9F84F05460C46FFF71AF9B5
:101B50002949C6B22846FFF7DFFF08B10136F6B2C1
:101B600026492846FFF7D8FF08B11036F6B2632E93
:101B70000DD8DFF88490DFF884A0214FDFF888B01B
:101B8000DFF888802E7846B92670BDE8F88F2946A0
:101B90002046BDE8F84F01F095BB252E28D107223D
:101BA00049462846FFF7D8F840B9D8F800302360F6
:101BB000D8F80430636007350834E3E7082251465B
:101BC0002846FFF7C9F898B90E4BA21C19780909E5
:101BD0000232C95D02F8041C13F8011B01F00F0169
:101BE0005B45C95D02F8031CF0D118340835C9E71C
:101BF000267001350134C5E758340008D133000898
:101C000069340008107AFF1F1C7AFF1F6034000837
:101C1000BFF34F8F024AD368DB03FCD4704700BF89
:101C2000003C024008B5094B1B7873B9FFF7F0FF81
:101C3000074B1A69002ABFBF064A5A6002F1883270
:101C40005A601A6822F480621A6008BDEE300020E3
:101C5000003C02402301674508B50B4B1B7893B944
:101C6000FFF7D6FF094B1A6942F000421A611A6861
:101C700042F480521A601A6822F480521A601A687C
:101C800042F480621A6008BDEE300020003C024041
:101C90000B2870B513D80B4A0B4C137863B90B4E55
:101CA0004FF0006144F8231056F8235001330C2BF9
:101CB0002944F7D10123137054F8200070BD00208F
:101CC000FCE700BF20310020F03000207C34000809
:101CD000014B53F8200070477C3400080C207047FB
:101CE0000B2810B5044601D9002010BDFFF7D0FF26
:101CF000064B53F824301844C21A0BB90120F4E7FC
:101D000012680132F0D1043BF6E700BF7C340008D2
:101D10000B2810B504461ED8FFF77AFFFFF782FFA5
:101D20000E49F323CB60FFF773FFC300DBB243F42C
:101D3000007343F002030B610B6943F480330B61C2
:101D4000FFF766FFFFF7A4FFFFF786FF2046BDE819
:101D50001040FFF7C5BF002010BD00BF003C02408F
:101D6000F8B512F0010316463DD10244B2F1016FFD
:101D700058D22D4B1B6813F0010353D02B4CFFF7A7
:101D800051FFF323E360FFF743FF40F20127032EE7
:101D900001D9830710D0254D0F46401A3144CB1B83
:101DA000012B00EB07042B6922D823F001032B61E0
:101DB000FFF752FF0120F8BD236923F4407323612C
:101DC00023693B43236151F8045B0560BFF34F8FE8
:101DD000FFF71EFF03689D4207D0236923F001032C
:101DE0002361FFF739FF0020E5E7043E0430CEE72A
:101DF00023F440732B612B6943F4807343F0010398
:101E00002B613B882380BFF34F8FFFF701FF2488AE
:101E100037F8023BA4B2A342C1D02B6923F00103DF
:101E20002B61DEE71846C6E700380240003C02405E
:101E3000084908B50B7828B11BB9FFF7F3FE012359
:101E40000B7008BD002BFCD0BDE808400870FFF700
:101E500003BF00BFEE30002010B50244064B04392A
:101E6000D2B2904200D110BD441C00B253F8200001
:101E700041F8040FE0B2F4E750280040104B30B5B1
:101E80001C6F240407D41C6F44F400741C671C6F7F
:101E900044F400441C670B4C236843F480732360B4
:101EA0000244094B0439D2B2904200D130BD441CE7
:101EB00000B251F8045F43F82050E0B2F4E700BFED
:101EC00000380240007000405028004007B5012251
:101ED00001A90020FFF7C0FF019803B05DF804FBE3
:101EE00007B502A9012241F8040D0020FFF7C6FF43
:101EF00003B05DF804FB0000034B1B689B0042BF6E
:101F0000024B01221A7070477438024021310020C0
:101F1000014B1878704700BF213100207047000046
:101F2000FEE70000084A094B09498B4204D3094ADD
:101F30000021934205D3704752F8040F43F8040B75
:101F4000F3E743F8041BF4E72436000818340020B4
:101F5000183400201834002030B5D0E91543002291
:101F60009D6811464FF0FF3004EB42130132954259
:101F7000C3F80019C3F81019C3F80809C3F8001B07
:101F8000C3F8101BC3F8080BEED24FF00113C4F8CE
:101F90001C3830BD890141F02001016103699B06B5
:101FA000FCD4122000F0C2BE1F4B03EB80022DE9CF
:101FB000F047D2F80CC05D6DDCF81420461CD2F856
:101FC00000E005EB063605EB4018516871450BD370
:101FD000D5F83428012303FA00F022EA0000C5F8FE
:101FE00034081846BDE8F087BCF81040AEEB01039A
:101FF000A34228BF2346D8F81849A4B2B3EB840FF4
:1020000010D894681F46A4F1040959F804AFC6F823
:1020100000A0042F01D9043FF7E71C440B4494604F
:102020005360D2E70020DDE72431002010B5054CD5
:102030002046FFF78DF84FF0A0436365024BA36580
:1020400010BD00BF24310020D03400080378012BDC
:1020500070B5054650D12A4B446D98421BD1294B8F
:102060005A6B42F080025A635A6D42F080025A6500
:102070005A6D5A6942F080025A615A6922F0800210
:102080005A610E2143205B6900F0D8FB1E4BE360D0
:102090001E4BC4F800380023C4F8003EC023236060
:1020A0006E6D4FF40413A3633369002BFCDA012334
:1020B00033610C2000F03AFE3369DB07FCD41220B8
:1020C00000F034FE3369002BFCDA0026A6602846B7
:1020D000FFF742FF6B68C4F81068DB68C4F8146847
:1020E000C4F81C684BB90A4BA3614FF0FF3363611E
:1020F000A36843F00103A36070BD064BF4E700BF83
:102100002431002000380240401400400300200227
:10211000003C30C0083C30C0F8B5446D0546002195
:102120002046FFF737FFA96D00234FF001128F689B
:10213000C4F834384FF00066C4F81C284FF0FF3064
:1021400004EB431201339F42C2F80069C2F8006BEE
:10215000C2F80809C2F8080BF2D20B686A6DEB6589
:10216000636210231361166916F01006FBD112206A
:1021700000F0DCFDD4F8003823F4FE63C4F8003826
:10218000A36943F4402343F01003A3610923C4F877
:102190001038C4F814380A4BEB604FF0C043C4F851
:1021A000103B084BC4F8003BC4F81069C4F8003970
:1021B000EB6D03F1100243F48013EA65A362F8BDEE
:1021C000AC34000840800010426D90F84E10D2F8F8
:1021D000003823F4FE6343EA0113C2F80038704765
:1021E0002DE9F8430EB200EB86090D46D9F80C2014
:1021F000176807F00303022B55D0032B55D03E4F31
:102200003E49012B18BF0F46446D690163184FF01A
:10221000000CC3F810CB05F110034FF0010C0CFAC1
:1022200003FC9369002B42D0B2F812E005F1580389
:102230005B014EEA070E44F803E0D4F81C3843EA89
:102240000C032144C4F81C380023C1F81039536929
:102250004FF00108691E08FA05F8ABB3138A928B98
:102260009B08012A88BF5343C26D9E1842EA03436C
:1022700001F1400204EB8202C66529465360204604
:10228000FFF788FED9F80C301B8A43EA855348359E
:102290006D011F436751D4F81C3843EA0803C4F8A2
:1022A0001C38BDE8F883164FAEE7164FACE704EBD9
:1022B000461EDEF8003B23F40043CEF8003BD4F882
:1022C0001C3823EA0C03BCE705F13F0304EB83034E
:1022D0000D4A5A6004EB461629462046FFF75AFE7F
:1022E000D6F8003923F40043C6F80039D4F81C3876
:1022F00023EA0803D3E700BF008004100080001029
:102300000080081000800C1000040002826D12682A
:10231000C265FFF721BE00005831436D49015B588B
:1023200013F4004004D013F4001F14BF0120022056
:10233000704700004831436D49015B5813F4004079
:1023400004D013F4001F14BF0120022070470000C6
:1023500000EB8101CB68196A0B6813604B6853600E
:102360007047000000EB810330B5DD68AA6913688F
:10237000D36019B9402B84BF402313606B8A146863
:10238000426D1C44013CB4FBF3F46343033323F07C
:10239000030302EB411043EAC44343F0C043C0F8D7
:1023A000103B2B6803F00303012B09B20ED1D2F8C6
:1023B000083802EB411013F4807FD0F8003B14BFC3
:1023C00043F0805343F00053C0F8003B02EB41124E
:1023D000D2F8003B43F00443C2F8003B30BD00009C
:1023E0002DE9F041244D6E6D06EB40130446D3F801
:1023F000087BC3F8087B38070AD5D6F814381907C4
:1024000006D505EB84032146DB6828465B689847C0
:10241000FA071FD5D6F81438DB071BD505EB840364
:10242000D968CCB98B69488A5E68B6FBF0F200FBCC
:1024300012628AB91868DA6890420DD2121AC3E99A
:102440000024202383F311880B482146FFF78AFFDD
:1024500084F31188BDE8F081012303FA04F26B894B
:1024600023EA02036B81CB68002BF3D0214602489C
:10247000BDE8F041184700BF2431002000EB810384
:1024800070B5DD68436D6C692668E6604A0156BB2D
:102490001A444FF40020C2F810092A6802F003021F
:1024A000012A0AB20ED1D3F8080803EB421410F443
:1024B000807FD4F8000914BF40F0805040F00050F5
:1024C000C4F8000903EB4212D2F8000940F00440BE
:1024D000C2F80009D3F83408012202FA01F10143DD
:1024E000C3F8341870BD19B9402E84BF4020206055
:1024F00020682E8A841940F00050013C1A44B4FB35
:10250000F6F440EAC440C6E7F8B504461E48456DF7
:1025100005EB4413D3F80869C3F80869F10717D528
:10252000D5F81038DA0713D500EB8403D9684B6966
:102530001F68DA68974218D2D21B00271A605F60C2
:10254000202383F311882146FFF798FF87F3118832
:10255000330617D5D5F834280123A340134211D0F0
:102560002046BDE8F840FFF71FBD012303FA04F23F
:10257000038923EA020303818B68002BE8D02146FC
:102580009847E5E7F8BD00BF2431002096482DE9C3
:10259000F84F456D6E69AB691E4016F4805F6E6141
:1025A000044605D0FEF73EFEBDE8F84F00F052BCF1
:1025B000002E12DAD5F8003E8B489B071EBFD5F8D7
:1025C000003E23F00303C5F8003ED5F8043823F09D
:1025D0000103C5F80438FEF749FE370502D58248E5
:1025E000FEF738FEB0040CD5D5F8083813F0060F06
:1025F000EB6823F470530CBF43F4105343F4A0531F
:10260000EB60310704D56368DB680BB17648984707
:10261000F2025AD4B3020CD5D4F85480DFF8C8A122
:1026200000274FF00109A36D9B68F9B28B4280F03F
:102630008780F70619D5616D0A6AC2F30A1702F09E
:102640000F0302F4F012B2F5802F00F0A180B2F572
:10265000402F0AD104EB830301F58051DB68186A2F
:1026600000231A469F4240F087803003D5F818486F
:1026700013D5E10302D50020FFF7B2FEA20302D575
:102680000120FFF7ADFE630302D50220FFF7A8FE8D
:10269000270302D50320FFF7A3FE750384D5E007C7
:1026A00002D50020FFF730FFA10702D50120FFF778
:1026B0002BFF620702D50220FFF726FF23077FF5D5
:1026C00073AF0320FFF720FF6EE7D4F85480DFF8E4
:1026D00018A100274FF00109A36D9B685FFA87FBE3
:1026E0005B4597D308EB4B13D3F8002902F4402243
:1026F000B2F5802F22D1D3F80029002A1EDAD3F8B0
:10270000002942F09042C3F80029D3F80029002A9A
:10271000FBDB5946606DFFF73DFC228909FA0BF39C
:1027200022EA0303238104EB8B03DB689B6813B16C
:102730005946504698475846FFF736FC0137CBE7D5
:1027400008EB4112D2F8003B03F44023B3F5802F8D
:1027500010D1D2F8003B002B0CDA628909FA01F3A0
:1027600022EA0303638104EB8103DB68DB680BB1BE
:1027700050469847013756E79C0708BF0A68072B61
:1027800098BF027003F101039CBF120A013069E790
:10279000023304EB830201F5805152689069D0F84E
:1027A00008E0D0E90020A2EB000C0022104697427E
:1027B0000AD104EB830463689B699A683A449A607F
:1027C0005A6817445F6050E712F0030F08BF0868AB
:1027D000944588BF8EF8000002F1010284BF000A10
:1027E0000EF1010EE3E700BF24310020436D03EB3F
:1027F0004111D1F8003B43F40013C1F8003B70478E
:10280000436D03EB4111D1F8003943F40013C1F8D3
:1028100000397047436D03EB4111D1F8003B23F4BD
:102820000013C1F8003B7047436D03EB4111D1F831
:10283000003923F40013C1F80039704700F16043F8
:1028400000F01F02400903F5614309018000C9B28D
:1028500000F1604083F8001300F5614001239340CC
:10286000C0F880310360704730B5039C01720433B7
:1028700004FB0325C0E90653049B03630021059B69
:10288000C160C0E90000C0E90422C0E90842C0E913
:102890000A11436330BD0000416A0022C0E90411FF
:1028A000C260C0E90A226FF00101FEF7F9BF000023
:1028B000D0E90432934201D1C2680AB9181D7047A9
:1028C0000020704703691960C2680132C260C269A2
:1028D000134482690361934224BF436A0361002168
:1028E000FEF7D2BF38B504460D46E3683BB16269D6
:1028F000131D1268A3621344E362002007E0237AE9
:1029000033B929462046FEF7AFFF0028EDDA38BD7F
:102910006FF00100FBE70000C368C269013BC360C0
:102920004369134482694361934224BF436A43610C
:1029300000238362036B03B11847704770B52023EF
:10294000044683F31188866A3EB9FFF7CBFF05463C
:1029500018B186F31188284670BDA36AE26A13F89D
:10296000015BA362934202D32046FFF7D5FF002309
:1029700083F31188EFE700002DE9F84F04460E4677
:1029800090469946202787F311880025AA46D4F857
:1029900028B0BBF1000F09D149462046FFF7A2FF3E
:1029A00020B18BF311882846BDE8F88FD4E90A13CB
:1029B000A8EB050B5B1A9B4528BF9B46BBF1400F5C
:1029C0001BD9334601F1400251F8040B43F8040BC4
:1029D0009142F9D1A36A40334036A3624035D4E92D
:1029E0000A239A4202D32046FFF796FF8AF3118802
:1029F0004545D8D287F31188C9E730465A46FEF7D5
:102A0000A1F9A36A5B445E44A3625D44E7E700006A
:102A100010B5029C0172043304FB0321C0E90613C4
:102A20000023C0E90A33039B0363049BC460C0E92D
:102A30000000C0E90422C0E90842436310BD000061
:102A4000026AC260426AC0E904220022C0E90A2286
:102A50006FF00101FEF724BFD0E904239A4201D1AF
:102A6000C26822B9184650F8043B0B60704700203A
:102A700070470000C368C2690133C36043691344EF
:102A800082694361934224BF436A43610021FEF798
:102A9000FBBE000038B504460D46E3683BB1236930
:102AA0001A1DA262E2691344E362002007E0237A60
:102AB00033B929462046FEF7D7FE0028EDDA38BDA7
:102AC0006FF00100FBE7000003691960C268013A7A
:102AD000C260C269134482690361934224BF436A9E
:102AE000036100238362036B03B118477047000042
:102AF00070B5202304460E4683F31188856A35B9E4
:102B00001146FFF7C7FF10B185F3118870BDA36AA6
:102B10001E70A36AE26A01339342A36204D3E1699F
:102B200020460439FFF7D0FF002080F31188EDE73D
:102B30002DE9F84F04460D4691469A464FF020087D
:102B400088F311880026B346A76A4FB9514620463C
:102B5000FFF7A0FF20B187F311883046BDE8F88F5A
:102B6000D4E90A07A9EB06033F1A9F4228BF1F4674
:102B7000402F1BD905F1400355F8042B40F8042BD6
:102B80009D42F9D1A36A4033A3624036D4E90A23B7
:102B90009A4204D3E16920460439FFF795FF8BF38D
:102BA00011884E45D9D288F31188CDE729463A4697
:102BB000FEF7C8F8A36A3B443D44A3623E44E5E700
:102BC000D0E904239A4217D1C3689BB1836A8BB1C1
:102BD000043B9B1A0ED01360C368013BC360C369FA
:102BE0001A44836902619A4224BF436A0361002345
:102BF00083620123184670470023FBE700F06CB99D
:102C00004FF08043002258631A610222DA60704755
:102C10004FF080430022DA60704700004FF080439D
:102C200058637047FEE7000010B5174CFEF722FD11
:102C3000FEF744FE802215492046FEF7CBFD012316
:102C400044F8180C0374124B124AD96821F4E0615D
:102C50000904090C0A431049DA60CA6842F080721C
:102C6000CA600E490A6842F001020A601022DA774F
:102C7000202283F82220002383F3118862B60848BB
:102C8000BDE81040FEF7C6BDB0290020DC340008C6
:102C900000ED00E00003FA05F0ED00E0001000E0B8
:102CA000E43400082DE9F84F1F4C4FF00008656927
:102CB00004F11407C1464FF08043266A5B6AAA6894
:102CC0009E1B96421DD34FF0200AAA68236AD5F8AE
:102CD0000CB0134423622B68BB425F60A6EB020674
:102CE0006361C5F80C8001D1FFF792FF89F3118869
:102CF0002869D8478AF311886569AB689E42E4D297
:102D0000D9E76269BA420CD0916823628E1B966043
:102D1000A86802282CBF1818981CBDE8F84FFFF7C8
:102D20007DBFBDE8F88F00BF88290020034B59689C
:102D30005A68521A9042FBD8704700BF001000E05A
:102D40004B6843608B688360CB68C3600B694361E9
:102D50004B6903628B6943620B6803607047000034
:102D600008B5224B22481A6940F2FF110A431A6142
:102D70001A6922F4FF7222F001021A611A691A6BB1
:102D80000A431A631A6D0A431A651A4A1B6D1146E3
:102D9000FFF7D6FF184802F11C01FFF7D1FF1748D3
:102DA00002F13801FFF7CCFF154802F15401FFF79B
:102DB000C7FF144802F17001FFF7C2FF124802F189
:102DC0008C01FFF7BDFF114802F1A801FFF7B8FF22
:102DD0000F4802F1C401FFF7B3FF0E4802F1E00112
:102DE000FFF7AEFFBDE8084000F0E0B80038024051
:102DF00000000240043500080004024000080240C0
:102E0000000C024000100240001402400018024072
:102E1000001C02400020024008B500F037FAFFF71E
:102E200003FFFFF769F8BDE80840FEF751BE000058
:102E300070470000064A536823F001035360EFF324
:102E40000983683383F30988002383F3118870476B
:102E500030EF00E010B5202383F31188104B5B683E
:102E600013F4006318D0F1EE103AEFF309844FF039
:102E7000807344F84C3C0B4BDB6844F8083CA4F1ED
:102E8000680383F30988FEF783FC18B1064B44F806
:102E9000503C10BD054BFAE783F31188F9E700BFFA
:102EA00000ED00E030EF00E03103000834030008DB
:102EB0004FF0804310B51A69920708D500241C61B1
:102EC000202383F31188FFF7EDFE84F31188BDE81A
:102ED0001040FFF7BFBF0000104B1A6C42F0010218
:102EE0001A641A6E42F001021A660D4A1B6E93684C
:102EF00043F0010393604FF0804353229A624FF0F6
:102F0000FF32DA6200229A615A63DA605A60012263
:102F10005A6108211A601C20FFF790BC003802405B
:102F2000002004E01F4B1A696FEAC2526FEAD252C6
:102F30001A611A69C2F308021A614FF0FF301A6968
:102F40005A69586100215A6959615A691A6A62F0CE
:102F500080521A621A6A02F080521A621A6A5A6A17
:102F600058625A6A59625A6A1A6C42F080521A645C
:102F70001A6E42F080521A661A6E0B4A106840F4BC
:102F800080701060186F00F44070B0F5007F1EBFB5
:102F90004FF4803018671967536823F40073536047
:102FA00000F054B90038024000700040304B4FF040
:102FB00080521A642F4A4FF4404111601A6842F05F
:102FC00001021A601A689207FCD59A6822F003027F
:102FD0009A60274B19469A6812F00C02FBD11868C8
:102FE00000F0F90018609A601A6842F480321A60A2
:102FF0000B689B03FCD54B6F43F001034B671C4BE5
:103000005A6F9007FCD51C4A5A601A6842F08072C9
:103010001A60184A53685904FCD5154B1A68920176
:10302000FCD5164A9A60164B1A68164B9A42164BF4
:103030001BD1164A1168164A914216D140F2051268
:103040001A600B4B9A6842F002029A609A6802F08A
:103050000C02082AFAD15A6C42F480425A645A6E21
:1030600042F480425A665B6E704740F20572E7E7B1
:10307000003802400070004008544007009488382F
:10308000002004E011640020003C024000ED00E05C
:1030900041C20F41084A08B5516913680B4003F05B
:1030A0000103536123B1054A13680BB15068984777
:1030B000BDE80840FFF7CEBE003C01409833002039
:1030C000084A08B5516913680B4003F002035361C5
:1030D00023B1054A93680BB1D0689847BDE8084012
:1030E000FFF7B8BE003C014098330020084A08B5FD
:1030F000516913680B4003F00403536123B1054A7F
:1031000013690BB150699847BDE80840FFF7A2BEAC
:10311000003C014098330020084A08B55169136803
:103120000B4003F00803536123B1054A93690BB1C7
:10313000D0699847BDE80840FFF78CBE003C0140CD
:1031400098330020084A08B5516913680B4003F012
:103150001003536123B1054A136A0BB1506A9847B3
:10316000BDE80840FFF776BE003C014098330020E0
:10317000174B10B55A691C68144004F478725A61F0
:10318000A30604D5134A936A0BB1D06A9847600628
:1031900004D5104A136B0BB1506B9847210604D528
:1031A0000C4A936B0BB1D06B9847E20504D5094AE2
:1031B000136C0BB1506C9847A30504D5054A936C6A
:1031C0000BB1D06C9847BDE81040FFF743BE00BF7D
:1031D000003C0140983300201A4B10B55A691C6816
:1031E000144004F47C425A61620504D5164A136DFA
:1031F0000BB1506D9847230504D5134A936D0BB15D
:10320000D06D9847E00404D50F4A136E0BB1506E91
:103210009847A10404D50C4A936E0BB1D06E984721
:10322000620404D5084A136F0BB1506F984723040A
:1032300004D5054A936F0BB1D06F9847BDE8104095
:10324000FFF708BE003C014098330020062108B576
:103250000846FFF7F3FA06210720FFF7EFFA0621E9
:103260000820FFF7EBFA06210920FFF7E7FA06210D
:103270000A20FFF7E3FA06211720FFF7DFFA0621FD
:103280002820BDE80840FFF7D9BA000008B5FFF7CD
:1032900049FE00F00BF8FDF759FFFDF733FEFFF78D
:1032A000C7FDBDE80840FFF7A9BC000000230449A2
:1032B0001A465A50C8180833802B4260F9D170471B
:1032C00098330020034611F8012B03F8012B002A44
:1032D000F9D17047121012131211000053544D33DC
:1032E00032463F3F3F00000000000000DC32000893
:1032F0003F00000013040000183300083F000000E6
:1033000019040000223300083F00000021040000DF
:103310002C3300083F00000053544D333246343004
:10332000780053544D3332463432780053544D3381
:103330003246343436585800000000007D0E000834
:10334000690E0008A50E0008910E00089D0E0008E9
:10335000890E0008750E0008610E0008010F0008B4
:10336000000000000100000000000000020000005A
:10337000000000009D1000080511000840004000FA
:10338000602E0020702E00200200000000000000CF
:1033900003000000000000004911000800000000C8
:1033A00010000000802E002000000000010000003E
:1033B0000000000024310020010102004172647508
:1033C00050696C6F740025424F415244252D424C88
:1033D000002553455249414C25000000711A000850
:1033E000D919000815100008551A000843000000FC
:1033F000F433000809024300020100C0320904004E
:103400000001020201000524001001052401000151
:10341000042402020524060001070582030800FFB8
:1034200009040100020A0000000705010240000033
:10343000070581024000000012000000403400082F
:1034400012011001020000408304405700020102F3
:10345000030100000403090425424F4152442500A2
:103460005375636365784634003031323334353612
:1034700037383941424344454600000000400000CF
:10348000004000000040000000400000000001007B
:103490000000020000000200000002000000020024
:1034A0000000020000000200000002000000000016
:1034B0008112000855150008011600084000400060
:1034C000843100208431002001000000943100206C
:1034D0008000000040010000030000006D61696E83
:1034E00000000000FC340008A031002098330020C8
:1034F00001000000252C00080000000069646C65D4
:10350000000000000000800200000000AAAAAAAA91
:1035100000000000FFFF00000000000000A00A0003
:103520000004000000000000AAAAAAAA00000000EF
:10353000DFFF0000000000000000000000000000AD
:1035400000000000AAAAAAAA00000000FFFF0000D5
:10355000000000000000000000000000000000006B
:10356000AAAAAAAA00000000FFFF000000000000B5
:10357000000000000000000000000000AAAAAAAAA3
:1035800000000000FFFF000000000000000000003D
:103590000000000000000000AAAAAAAA0000000083
:1035A000FFFF00000000000000000000000000001D
:1035B00000000000AAAAAAAA00000000FFFF000065
:1035C00000000000000000000000000000000000FB
:1035D0000A000000000000000300000000000000DE
:1035E00000000000000000000000000000000000DB
:1035F00000000000000000000000000000000000CB
:10360000FF00960000000008040000005434000889
:1036100000000000000000000000000000000000AA
:083620000000000000000000A2
:00000001FF
